:020000040800F2
:100000008006002089010008910100089301000882
:100010009501000897010008990100080000000000
:100020000000000000000000000000009B0100082C
:100030009D010008000000009F010008A1010008C8
:10004000A3010008A3010008A3010008A301000800
:10005000A3010008A3010008A3010008A3010008F0
:10006000A3010008A301000831030008A301000850
:10007000A3010008A3010008A3010008A3010008D0
:10008000A3010008A3010008A3010008A3010008C0
:10009000A3010008A3010008A3010008A3010008B0
:1000A000A3010008A3010008A3010008A3010008A0
:1000B0003D0C0008A3010008A3010008A3010008EB
:1000C000A3010008A3010008A3010008A301000880
:1000D000A3010008A3010008A3010008A301000870
:1000E000A3010008A3010008A301000800F002F822
:1000F00000F03AF80AA090E8000C82448344AAF188
:100100000107DA4501D100F02FF8AFF2090EBAE885
:100110000F0013F0010F18BFFB1A43F0010318473B
:10012000F81C0000181D0000103A24BF78C878C1E0
:10013000FAD8520724BF30C830C144BF04680C60ED
:10014000704700000023002400250026103A28BF35
:1001500078C1FBD8520728BF30C148BF0B60704739
:100160001FB51FBD10B510BD00F031F81146FFF7E7
:10017000F7FF01F0BDF800F04FF803B4FFF7F2FF0E
:1001800003BC00F057F800000948804709480047C1
:10019000FEE7FEE7FEE7FEE7FEE7FEE7FEE7FEE737
:1001A000FEE7FEE704480549054A064B7047000094
:1001B000ED0B0008ED000008800000208006002004
:1001C000800200208002002070477047704775460B
:1001D00000F02CF8AE4605006946534620F00700B3
:1001E000854618B020B5FFF7DDFFBDE820404FF091
:1001F00000064FF000074FF000084FF0000B21F011
:100200000701AC46ACE8C009ACE8C009ACE8C009DD
:10021000ACE8C0098D46704710B50446AFF30080C6
:100220002046BDE81040FFF7A8BF00000048704717
:100230002000002001491820ABBEFEE72600020086
:10024000704700B502464FF47A7302E0184600F09A
:1002500010F8521E501CF9D100BD30B504464FF4C1
:100260007A7502E02846FFF7ECFF641E601CF9D1A6
:1002700030BD00EBC000C1004FF0E0204161002123
:100280008161052101610169C903FCD50421016176
:10029000704700002DE9F041224C0025256000F058
:1002A0008DFFE1686068084460602068401C206041
:1002B0000528F4DB00F094FF6668052796FBF7F04D
:1002C000A06101F032F9184A184B01F045F901F02C
:1002D000FBF8E06106EB061191FBF7F1642291FB5C
:1002E000F2F302FB1311A16001F034FA0246052378
:1002F0000121022000F076FB2E220621022000F0D0
:1003000045FB022307211846A26800F06BFB6560DD
:10031000E069B0F1824F02DC0120BDE8F0810020ED
:10032000FBE70000000000209CC420B07268913FF1
:1003300070B5102000F02EF8E8B100F0C0FC4FF0CE
:100340008045284600F057FD0D4C20610D4E1021D0
:10035000304600F0D0F80028F9D1284600F04BFDD7
:10036000606100F0A7FCD4E90410401AE0600021AD
:10037000284600F08EFEBDE87040102000F004B862
:10038000000000200008014001490860704700009B
:100390001404014001460020054A12680A40044B3B
:1003A00014331B680B4202D0002A00D00120704792
:1003B0000004014030B51B4A83790168002B2AD024
:1003C00013688B431360111D0B680468A3430B6013
:1003D000017911440B68046823430B60114C083405
:1003E0002168036899432160231D19680568A943A2
:1003F00019604179102905D011440A680068024348
:100400000A6030BD216802681143216019680068E4
:100410000143196030BD0079104402688A430260CC
:1004200030BD00000004014010B58A07120F0F23F1
:10043000934021F00304054921448C689C438C605F
:100440008B68904003438B6010BD000000000140AA
:100450002DE9F0410022CC7804F00F03E40601D529
:100460008C7823430C784FF00F0714F0FF0F4FF0F8
:10047000010C1CD005680CFA02F40E882640A64236
:1004800011D1960007FA06F825EA080503FA06F8DE
:1004900048EA0505CE78282E02D0482E02D002E088
:1004A000446100E00461521C082AE4D305600A8814
:1004B000FF2A1ED94568002202F108060CFA06F44C
:1004C0000E882640A64210D1960007FA06F825EAC3
:1004D000080503FA06F848EA0505CE78282E00D16B
:1004E0004461CE78482E00D10461521C082AE3D31F
:1004F0004560BDE8F0810246002092680A4200D0C3
:10050000012070474161704701617047002A01D0A6
:10051000016170474161704708B50121082000F072
:10052000FDFA04208DF803004FF47040ADF8000090
:1005300003208DF8020069460148FFF789FF08BDD6
:10054000000C01407FB5FFF7E7FF6A4D4FF4805183
:100550002846FFF7D0FF009069142846FFF7CBFF2D
:1005600001904FF480412846FFF7C5FF02904FF4F9
:1005700000412846FFF7BFFF0390009850B901984B
:10058000012807D10298012804D1039810B9FFF778
:1005900081FE10B1009828B10EE00024502000F038
:1005A00077FAA3E00198012806D1029820B90398B0
:1005B00010B9FFF76FFE10B1009828B10EE00024CB
:1005C000462000F065FA91E0019838B902980128B8
:1005D00004D1039810B9FFF75DFE18B10098012807
:1005E00005D00BE00024462000F052FA7EE001988E
:1005F000012803D1029808B9039810B1009840B1BE
:100600000FE00B24142000F06BFA462000F058FA9B
:100610006CE0019828B90298012802D103980128BA
:1006200003D00098012808D00DE01624462000F0E1
:1006300057FA142000F044FA58E0019818B90298CB
:1006400008B9039810B1009840B10EE06F240A2059
:1006500000F046FA3C2000F033FA47E0019820B958
:10066000029810B90398012802D0009840B113E015
:10067000DE243C2000F034FA0A2000F021FA35E0B4
:100680000198012808D10298012805D1039818B9CA
:10069000FFF700FE012802D0009828B10FE00624E1
:1006A0003C2000F0F5F921E00198012807D10298DB
:1006B00028B9039818B9FFF7EDFD012802D000987A
:1006C00028B113E006243C2000F0E2F90EE0019886
:1006D00060B90298012809D1039838B9FFF7DAFD0B
:1006E000012803D106243C2000F0D2F904B02046B2
:1006F00070BD0000000C014070B50F23C2780126C8
:100700000178002A1ED0144A126802F4E062C2F591
:10071000E062120AC2F10404D3404578A540827811
:100720001A402A43120101F1E02181F800240078E7
:1007300000F01F018E404009800000F1E020C0F869
:10074000006170BD01F01F0086404809800000F183
:10075000E020C0F8806170BD0CED00E00249084364
:1007600002490860704700000000FA050CED00E047
:1007700070B500250021284600F0F6F8002400207E
:1007800000F074F9641CE4B2802CF8D36D1CEDB257
:10079000082DEFD370BD0000F8B50121042000F052
:1007A000BDF914208DF8030003208DF802004FF4EA
:1007B0008074ADF800400B4E69463046FFF748FEA6
:1007C0006500ADF8005069463046FFF741FE012252
:1007D00021463046FFF79AFE012229463046FFF7B0
:1007E00095FEF8BD000801402DE9F04707460024BA
:1007F000134D4FF080094FF40078AE1529FA04F23A
:100800003A4041462846FFF781FE012231462846FC
:10081000FFF77CFE002231462846FFF777FE641C76
:10082000E4B2082CEAD3012231462846FFF76EFED7
:1008300031462846BDE8F0470022FFF767BE0000BA
:100840000008014070B501220B4D54022146284694
:10085000FFF75CFE0122160231462846FFF756FEDE
:10086000002221462846FFF751FE31462846BDE8C2
:1008700070400022FFF74ABE0008014070B50A4DE3
:100880004FF40074002221462846FFF73FFE012264
:1008900011022846FFF73AFE21462846BDE870407F
:1008A0000122FFF733BE00000008014010B500210F
:1008B0004FF47A720020401C9042FCD3491C9142B4
:1008C000F8D3FFF769FFAE2000F0BFF8D52000F0A5
:1008D000BCF8802000F0B9F8A82000F0B6F83F205E
:1008E00000F0B3F8D32000F0B0F8002000F0ADF82D
:1008F000402000F0AAF8A12000F0A7F8C82000F0DE
:10090000A4F8DA2000F0A1F8122000F09EF881206F
:1009100000F09BF8CF2000F098F8D92000F095F86F
:10092000F12000F092F8DB2000F08FF8302000F08A
:100930008CF8A42000F089F8A62000F086F88D201D
:1009400000F083F8142000F080F8AF2000F07DF86C
:10095000BDE81040FFF70CBF0346012000E05843FC
:10096000491E4A1CFBD1704710B50C4640F0B00040
:1009700000F06BF8102040EA141000F066F804F064
:100980000F00BDE8104000F060B800002DE9F04114
:100990001546491E461ECF007006F9B2000EFFF73D
:1009A000E3FF00240E48203D00EB0515285D00F014
:1009B0005DF8641CE4B2082CF8D3012000EB46007B
:1009C000F9B2C0B2FFF7D0FF00242819007A00F076
:1009D0004DF8641CE4B2082CF7D3BDE8F0810000A8
:1009E000281800082DE9F04781460F4690461E461C
:1009F00000240A2512E0311B491E0A20FFF7ACFF34
:100A0000B8FBF0F2B2FBF5F005FB10223819C1B2C9
:100A100030324846FFF7BAFF641CE4B2B442EAD36E
:100A2000BDE8F0872DE9F04107460D461646002443
:100A300006E02819C1B23846FFF7A8FF641CE4B2EB
:100A4000325D002AF5D1BDE8F08110B50446FFF70C
:100A5000F9FE7820FFF7C8FE0020FFF7C5FE20460C
:100A6000FFF7C2FEBDE81040FFF708BF10B504460F
:100A7000FFF7E8FE7820FFF7B7FE4020FFF7B4FE4F
:100A80002046FFF7B1FEBDE81040FFF7F7BE0000BB
:100A900070B50546094C2946204600F0F1FA294672
:100AA000204600F0EFFA2946204600F0EDFA2946EC
:100AB0002046BDE8704000F0E9BA000000080040A0
:100AC00070B50546054C2946204600F0D9FA29465E
:100AD0002046BDE8704000F0D9BA00000008004090
:100AE00070B50546054C2946204600F0CBFA29464C
:100AF0002046BDE8704000F0C7BA00000008004082
:100B0000054A002903D0D1690143D1617047D169F9
:100B10008143D1617047000000100240054A00295E
:100B200003D091690143916170479169814391615B
:100B30007047000000100240AFF300800CB50022A7
:100B4000019200922748016841F4803101604FF41E
:100B5000A063016801F4003100910199491C0191E1
:100B6000009911B901999942F3D10168890302D51D
:100B70000121009100E000920099012930D11A4929
:100B80000A6842F010020A600A6822F003020A6052
:100B90000A6842F002020A604168416041684160AF
:100BA000416841F480614160416821F47C114160F9
:100BB000416841F4E8114160016841F080710160D1
:100BC00001688901FCD5416821F003014160416859
:100BD00041F0020141604168C1F381010229FAD16B
:100BE0000CBD0000001002400020024010B50F486C
:100BF000016841F00101016041680D4A1140416006
:100C000001680C4A11400160016821F480210160F3
:100C1000416821F4FE0141604FF41F018160FFF73C
:100C20008BFF05494FF00060086010BD00100240C6
:100C30000000FFF8FFFFF6FE08ED00E010B501210F
:100C40008C07204600F0D9F8012805D12046BDE8E0
:100C50001040012100F0B2B810BD7FB50121084657
:100C6000FFF74EFF4FF08045284600F0DCF80024E7
:100C7000ADF80A40ADF806404FF6FF71ADF8081028
:100C80004721ADF8041001A9284600F005FA012219
:100C90001146284600F0BDF81C208DF80000012008
:100CA0008DF803008DF801408DF802006846FFF7CB
:100CB00023FD7FBD00214FF0804000F082B801216C
:100CC000880700F07EB8000030B589B0012104200B
:100CD000FFF716FF01210820FFF720FF18208DF8ED
:100CE00023004FF47070ADF8200003208DF822002F
:100CF00008A92A48FFF7ACFB294D284600F093F8D5
:100D00000024ADF81A40ADF816406321ADF8181074
:100D100040F2CF20ADF814008DF81C4005A92846FC
:100D200000F0BAF901A800F0A1F96020ADF80400C4
:100D3000ADF80C400120ADF80600ADF80A4001A95D
:100D4000284600F075F801A9284600F0BBF801A973
:100D5000284600F005F901A9284600F049F90121CB
:100D6000284600F01FF80121284600F036F801213E
:100D7000284600F0A1F80121284600F0E7F80121FB
:100D8000284600F02FF90121284600F065F90121DD
:100D9000284600F016F809B030BD0000000C0140F4
:100DA00000080040002904D0018841F08001018042
:100DB0007047018821F0800101807047C94301829A
:100DC0007047002904D0018841F00101018070477B
:100DD000018821F0010101807047002905D030F819
:100DE000441F41F400410180704730F8441FC1F3B3
:100DF0000E0101807047808C704702460020138AE4
:100E00000B4092890A40002B02D0002A00D001201A
:100E10007047002A03D082890A4382817047828901
:100E20008A4382817047018921F00701018170475F
:100E300030B5028C22F001020284028C8388048B7C
:100E400024F0700424F003050C882C4322F00202E5
:100E50000D8915434A882A43124DA8420BD0124DE2
:100E6000A84208D0114DA84205D0114DA84202D089
:100E7000104DA8420FD122F008054A892A4322F0DA
:100E800004058A882A4323F4807323F400738D8930
:100E90001D43CB892B4383800483C98881860284C8
:100EA00030BD0000002C01400034014000400140F2
:100EB0000044014000480140028B22F008020A432E
:100EC0000283704770B5028C22F010020284028CFB
:100ED0008388048B24F4E04424F440760D884FF694
:100EE000FF7404EA0525354322F020020E8904EA46
:100EF000061616434A8804EA02123243114EB042E3
:100F000002D0114EB04217D122F080024E8904EA7D
:100F10000616164326F040068A8804EA0212324377
:100F200023F4806323F400638E8904EA86061E435B
:100F3000CB8904EA8303334383800583C98801870F
:100F4000028470BD002C014000340140028B22F469
:100F500000624FF6FF7303EA0121114301837047DA
:100F600070B5028C22F480720284028C8388848B98
:100F700024F0700424F003040D88254322F4007249
:100F80000E894FF6FF7404EA062616434A8804EADF
:100F900002223243114EB04202D0114EB04217D15C
:100FA00022F400664A8904EA0222324322F480666F
:100FB0008A8804EA0222324323F4805323F4005344
:100FC0008E8904EA06161E43CB8904EA03133343D1
:100FD00083808583C9888187028470BD002C01408D
:100FE00000340140828B22F008020A43828370475A
:100FF00070B5028C22F480520284058C8288838B27
:1010000023F4E04323F440760C884FF6FF7303EAA1
:101010000424344325F400550E8903EA06362E4392
:101020004D8803EA05353543094EB04202D0094EDA
:10103000B04205D122F480468A8903EA8212324303
:1010400082808483C988A0F84010058470BD0000A8
:10105000002C014000340140828B22F400624FF6E4
:10106000FF7303EA0121114381837047002101804E
:1010700041808180C180018141818181C18170472E
:10108000818670470187704781877047A0F84010BC
:10109000704781847047000030B502881B4C1C4D9E
:1010A000A0420DD0A8420BD0B0F1804F08D0194B10
:1010B000984205D0184B984202D0184B984203D161
:1010C00022F070034A881A43154B984206D0154BFC
:1010D000984203D022F44073CA881A4302808A8857
:1010E00082850A880285A0420AD0A84208D00E4A0A
:1010F000904205D00D4A904202D00D4A904201D153
:10110000097A01860121818230BD0000002C014056
:10111000003401400004004000080040000C004082
:101120000010004000140040004001400044014015
:10113000004801402DE9FF4101210420FFF7EEFCAA
:1011400001210846FFF7EAFC10248DF80F4008251E
:10115000ADF80C5003268DF80E60174F03A93846E2
:10116000FFF776F928218DF80F10ADF80C408DF8B7
:101170000E6003A93846FFF76BF904210020FFF742
:1011800053F9019400208DF808008DF809500124CE
:101190008DF80A4001A8FFF70DF90A208DF800002C
:1011A0008DF801408DF802408DF803406846FFF746
:1011B000A3FABDE8FF8100000008014010B5074C0C
:1011C00008212046FFF7A0F90F20FFF752F820462C
:1011D000BDE810400821FFF795B900000008014064
:1011E00008210148FFF78EB90008014038B50121F8
:1011F0000820FFF793FC01210420FFF78FFC102447
:101200008DF8034040F60640ADF8000003258DF848
:10121000025069460848FFF71BF98DF8034040F675
:101220000340ADF800008DF8025069460348FFF70F
:101230000FF9FFF749FD38BD000C014000080140DF
:1012400070B5134E4FF4006421463046FFF75AF94B
:10125000651029463046FFF757F904213046FFF75D
:1012600051F902213046FFF74FF92146094C20463B
:10127000FFF748F929462046FFF746F901212046A5
:10128000FFF742F92046BDE870400221FFF73AB966
:10129000000C01400008014070B5134E4FF400648B
:1012A00021463046FFF730F9651029463046FFF7F2
:1012B00029F904213046FFF725F902213046FFF7CE
:1012C00023F92146094C2046FFF71CF92946204600
:1012D000FFF71AF901212046FFF714F92046BDE86F
:1012E00070400221FFF710B9000C014000080140D6
:1012F00008B54FF44070FFF731FAFFF7E5FCFFF750
:101300000BF9FFF773FFFFF7D1FAFFF7A6FCFFF722
:1013100011FF01210820FFF701FC10258DF8035073
:101320000120ADF8000003248DF80240464E6946C6
:101330003046FFF78DF801210420FFF7EFFB8DF811
:1013400003506D02ADF800508DF802403F4C6946E5
:101350002046FFF77DF801213046FFF7D5F82946F2
:101360002046FFF7D1F8FFF7EDF8D8B3FFF7EAF81A
:101370000B2840D0FFF7E6F8162846D0FFF7E2F832
:101380006F284CD0FFF7DEF8DE2852D0FFF7DAF8EE
:101390000628E8D1FFF7ECF901212DA20846FFF756
:1013A00041FBFFF779FF4FF42F70FEF74AFFFFF77D
:1013B00047FF0220FEF751FF6420FEF742FF00F0D6
:1013C00057F80120FEF749FF4FF496742046FEF7C8
:1013D00038FFFFF735FF0220FEF73FFF2046FEF7FC
:1013E00030FFC0E7FFE701211BA20846FFF71AFB09
:1013F000FFF726FFB7E7FFF7BBF9012118A2084660
:10140000FFF710FBFFF71CFFADE7FFF7B1F9012174
:1014100015A20846FFF706FBFFF712FFA3E7FFF749
:10142000A7F901210EA20846FFF7FCFAFFF708FF13
:1014300099E7FFF79DF901210BA20846FFF7F2FAA1
:10144000FFF7FEFE8FE70000000C0140000801409E
:101450006175746F00000000666F727761726400DE
:101460006C656674000000007269676874000000B3
:1014700070B5134E4FF4006421463046FFF742F832
:10148000651029463046FFF73FF804213046FFF744
:101490003BF802213046FFF735F82146094C20463B
:1014A000FFF732F829462046FFF72CF801212046A5
:1014B000FFF72AF82046BDE870400221FFF722B866
:1014C000000C01400008014021F00042A2F16052EE
:1014D000B2F5801F01F0004328BFD2F17F6C0BD919
:1014E0005FEA001C43EAC20242EB507018BF70472B
:1014F00028BF20F001007047B2F5801FBCBF18461E
:1015000070474FEA410C1CF5001F02D2084600F05C
:1015100086B970B500F0CAF800000089FFF7F6BF81
:101520004FF00040A0F58000704710F0004248BF27
:101530004042B0FA80F310FA03F10AD0C3F11D0360
:1015400003F580634FEA415002EB035202EBD121D5
:1015500070474FF000007047DFF848C170B51CEAD3
:10156000111E1EBF1CEA13159EEA0C0F95EA0C0F04
:1015700000F06F8081EA030423EA4C134EEAD47E24
:1015800021EA4C1141F4801143F48013AE44A1FBD5
:10159000024CA0FB0365AEF17F7E361955EB0C05BE
:1015A000A1FB034C4CF10003A0FB021C16EB0C0644
:1015B000654153F10003094218BF46F0010613F4D8
:1015C000007F0BD14FEA03314FEA0530340341EA83
:1015D000155140EA16506FF003020AE04FEAC321AA
:1015E0004FEAC520F40241EA555140EA56506FF0E7
:1015F000020202EB2E4201EB025585EACE710AD0BF
:101600005FEA440C18BF24F0004450F1000041F19F
:10161000000120EAD47040F2FE7C624500D270BD29
:10162000A84214BF4FF080444FF04044002E08BF42
:101630000024BEF1806FA8BFA1F1C041BDE8704099
:1016400080F282804FF0000001F1C04101F00041C2
:1016500070479EEA0C0F0CEA131518BF95EA0C0FA1
:1016600006D04FF0000081EA030E0EF0004170BD7D
:1016700000F01CF88900013E00F007B800F009B83E
:101680004FEA430C5FEA5C5C08D081EA030100F09A
:101690005BB84FEA410C5FEA5C5CF6D14FF00000AA
:1016A000014970470000FF070000F87F0EF1020EAD
:1016B0002EF0030E5EF8046B364205D4012A43EB8C
:1016C000030515F5001F12D8012841EB010C1CF58C
:1016D000001F0CD80ED14FEAD17C15F5001F0CEB82
:1016E0004C0C0CF1020C08BF4CEBD37C04E04FF027
:1016F000080C01E04FEAD37C0CEB4C0526FA05F60A
:1017000006F00706B6F1040C06D20EEB860CBDE817
:1017100070404CF0010C6047DFE80CF0090B02024E
:101720004FF000414FF00000A1F5002170BD1946B7
:101730001046012851EB010418BFD4F5001484BFF2
:10174000002001F0004170BD0808A0F500114FEA2B
:1017500031017047C10DD1F19E0206DB4FEA002333
:1017600043F0004323FA02F07047004207D54FEAE6
:101770004001B1F1FE4F02D24FF00000704710B5AA
:1017800000F007F849922480002070476FEA20009B
:1017900070470EF1020E2EF0030E5EF8044B244249
:1017A00004D44FEA4102B2F17F4F11D84FEA40030F
:1017B000B3F17F4F0CD80ED14FEAD07CB2F17F4FFE
:1017C0000CEB4C0C0CF1020C08BF4CEBD17C04E090
:1017D0004FF0080C01E04FEAD17C0CEB4C0324FAEB
:1017E00003F404F00704B4F1040C06D20EEB840CED
:1017F000BDE810404CF0010C6047DFE80CF0070832
:1018000002024FF00040A0F5800010BD08464200E3
:1018100018BFD2F1807288BF00F0004010BDFF21D8
:1018200041EAD050C00570470000000000000000F1
:101830000000000000000000000000F800000000B0
:10184000000000333000000000100C06100C0600F1
:10185000000000000000000040C07840C078400058
:10186000043F04043F040400007088FC08300000BA
:10187000001820FF211E0000F008F000E018000012
:1018800000211C031E211E0000F0088870000000CB
:101890001E2123241927211010160E00000000001D
:1018A0000000000000000000000000E0180402003A
:1018B000000000071820400000020418E0000000AB
:1018C0000040201807000000404080F080404000A9
:1018D0000202010F01020200000000F000000000FF
:1018E0000101011F010101000000000000000000D3
:1018F00080B0700000000000000000000000000048
:1019000000010101010101010000000000000000D0
:10191000003030000000000000000000806018046B
:10192000006018060100000000E010080810E00048
:10193000000F102020100F00001010F80000000011
:101940000020203F20200000007008080888700058
:1019500000302824222130000030088888483000D8
:101960000018202020110E000000C02010F80000F8
:1019700000070424243F240000F808888808080091
:101980000019212020110E0000E0108888180000A6
:10199000000F112020110E0000380808C838080078
:1019A0000000003F000000000070880808887000F8
:1019B000001C222121221C0000E010080810E00079
:1019C0000000312222110F00000000C0C000000002
:1019D0000000003030000000000000800000000027
:1019E000000080600000000000008040201008001F
:1019F00000010204081020004040404040404000E8
:101A000004040404040404000008102040800000C2
:101A10000020100804020100007048080808F000C7
:101A20000000003036010000C030C828E810E00097
:101A30000718272423140B000000C038E000000022
:101A4000203C23020227382008F88888887000008C
:101A5000203F202020110E00C03008080808380060
:101A6000071820202010080008F808080810E000D7
:101A7000203F202020100F0008F88888E808100078
:101A8000203F20202320180008F88888E80810004C
:101A9000203F200003000000C03008080838000084
:101AA00007182020221E020008F808000008F80885
:101AB000203F210101213F20000808F8080800000C
:101AC0000020203F2020000000000808F80808003F
:101AD000C08080807F00000008F888C028180800B7
:101AE000203F20012638200008F8080000000000F0
:101AF000203F20202020300008F8F800F8F80800E7
:101B0000203F003F003F200008F830C00008F808E0
:101B1000203F200007183F00E01008080810E000F0
:101B20000F10202020100F0008F808080808F00007
:101B3000203F210101010000E01008080810E0002A
:101B40000F18242438504F0008F8888888887000BF
:101B5000203F2000030C302000708808080838005F
:101B60000038202121221C00180808F80808180055
:101B70000000203F2000000008F808000008F808D6
:101B8000001F202020201F000878880000C8380887
:101B9000000007380E010000F80800F80008F800FF
:101BA000033C0700073C0300081868808068180899
:101BB00020302C03032C30200838C800C838080017
:101BC0000000203F2000000010080808C838080066
:101BD0002038262120201800000000FE020202000A
:101BE0000000007F40404000000C30C000000000BA
:101BF000000000010638C00000020202FE000000E2
:101C0000004040407F000000000004020202040087
:101C100000000000000000000000000000000000C4
:101C200080808080808080800002020400000000AC
:101C300000000000000000000000808080800000A4
:101C40000019242222223F2008F800808000000092
:101C5000003F112020110E00000000808080000055
:101C6000000E112020201100000000808088F80064
:101C7000000E112020103F20000080808080000096
:101C8000001F222222221300008080F088888818FA
:101C90000020203F20200000000080808080800005
:101CA000006B94949493600008F80080808000009A
:101CB000203F210000203F20008098980000000075
:101CC0000020203F202000000000008098980000A5
:101CD00000C08080807F000008F8000080808000C5
:101CE000203F24022D302000000808F800000000EA
:101CF0000020203F202000008080808080808000A5
:101D0000203F20003F20003F808000808080000036
:101D1000203F210000203F200000808080800000C4
:101D2000001F202020201F008080008080000000F5
:101D300080FFA12020110E00000000808080800024
:101D4000000E112020A0FF80808080008080800015
:101D500020203F2120000100000080808080800042
:101D60000033242424241900008080E080800000B7
:101D70000000001F20200000808000000080800004
:101D8000001F202020103F20808080000080808065
:101D900000010E30080601008080008000808080F5
:101DA0000F300C030C300F0000808000808080001A
:101DB0000020312E0E312000808080000080808045
:101DC00080818E70180601000080808080808000F5
:101DD0000021302C2221300000000000807C020213
:101DE00000000000003F404000000000FF00000035
:101DF00000000000FF0000000002027C80000000E4
:101E00000040403F000000000006010102020404FF
:101E10000000000000000000381E00080000002044
:101E20002000000028010008581E000820000020A3
:101E300060060000440100080000000000000000EF
:101E40000000000000000000000000000000000092
:081E500000000000000000008A
:04000005080000ED02
:00000001FF
