:020000040800F2
:100000008006002089010008910100089301000882
:100010009501000897010008990100080000000000
:100020000000000000000000000000009B0100082C
:100030009D010008000000009F010008A1010008C8
:10004000A3010008A3010008A3010008A301000800
:10005000A3010008A3010008A3010008A3010008F0
:10006000A3010008A301000895020008A3010008ED
:10007000A3010008A3010008A3010008A3010008D0
:10008000A3010008A3010008A3010008A3010008C0
:10009000A3010008A3010008A3010008A3010008B0
:1000A000A3010008A3010008A3010008A3010008A0
:1000B000D9080008A3010008A3010008A301000853
:1000C000A3010008A3010008A3010008A301000880
:1000D000A3010008A3010008A3010008A301000870
:1000E000A3010008A3010008A301000800F002F822
:1000F00000F03AF80AA090E8000C82448344AAF188
:100100000107DA4501D100F02FF8AFF2090EBAE885
:100110000F0013F0010F18BFFB1A43F0010318473B
:10012000300E0000500E0000103A24BF78C878C18D
:10013000FAD8520724BF30C830C144BF04680C60ED
:10014000704700000023002400250026103A28BF35
:1001500078C1FBD8520728BF30C148BF0B60704739
:100160001FB51FBD10B510BD00F031F81146FFF7E7
:10017000F7FF00F09BFE00F04FF803B4FFF7F2FF2B
:1001800003BC00F057F800000948804709480047C1
:10019000FEE7FEE7FEE7FEE7FEE7FEE7FEE7FEE737
:1001A000FEE7FEE704480549054A064B7047000094
:1001B00089080008ED00000880000020800600206B
:1001C000800200208002002070477047704775460B
:1001D00000F02CF8AE4605006946534620F00700B3
:1001E000854618B020B5FFF7DDFFBDE820404FF091
:1001F00000064FF000074FF000084FF0000B21F011
:100200000701AC46ACE8C009ACE8C009ACE8C009DD
:10021000ACE8C0098D46704710B50446AFF30080C6
:100220002046BDE81040FFF7A8BF00000048704717
:100230002000002001491820ABBEFEE72600020086
:10024000704700B502464FF47A7302E0184600F09A
:1002500010F8521E501CF9D100BD30B504464FF4C1
:100260007A7502E02846FFF7ECFF641E601CF9D1A6
:1002700030BD00EBC000C1004FF0E0204161002123
:100280008161052101610169C903FCD50421016176
:100290007047000070B5102000F02EF8E8B100F0B3
:1002A0005CFB4FF08045284600F0F3FB0D4C2061CD
:1002B0000D4E1021304600F0D0F80028F9D1284624
:1002C00000F0E7FB606100F043FBD4E90410401A42
:1002D000E0600021284600F02AFDBDE870401020B3
:1002E00000F004B800000020000801400149086047
:1002F000704700001404014001460020054A1268BE
:100300000A40044B14331B680B4202D0002A00D071
:10031000012070470004014030B51B4A8379016811
:10032000002B2AD013688B431360111D0B680468DF
:10033000A3430B60017911440B68046823430B60ED
:10034000114C08342168036899432160231D196802
:100350000568A94319604179102905D011440A683C
:10036000006802430A6030BD2168026811432160C1
:10037000196800680143196030BD007910440268B3
:100380008A43026030BD00000004014010B58A07B6
:10039000120F0F23934021F00304054921448C6878
:1003A0009C438C608B68904003438B6010BD0000C1
:1003B000000001402DE9F0410022CC7804F00F0349
:1003C000E40601D58C7823430C784FF00F0714F026
:1003D000FF0F4FF0010C1CD005680CFA02F40E88D8
:1003E0002640A64211D1960007FA06F825EA08052C
:1003F00003FA06F848EA0505CE78282E02D0482EE2
:1004000002D002E0446100E00461521C082AE4D3F7
:1004100005600A88FF2A1ED94568002202F10806F5
:100420000CFA06F40E882640A64210D1960007FA70
:1004300006F825EA080503FA06F848EA0505CE7825
:10044000282E00D14461CE78482E00D10461521C80
:10045000082AE3D34560BDE8F08102460020926897
:100460000A4200D00120704701617047002A01D084
:10047000016170474161704708B50121082000F013
:100480009BF904208DF803004FF47040ADF8000094
:1004900003208DF8020069460148FFF78BFF08BD75
:1004A000000C014070B50F23C27801260178002AA4
:1004B0001ED0144A126802F4E062C2F5E062120A29
:1004C000C2F10404D3404578A54082781A402A43FB
:1004D000120101F1E02181F80024007800F01F01F1
:1004E0008E404009800000F1E020C0F8006170BD3E
:1004F00001F01F0086404809800000F1E020C0F8AC
:10050000806170BD0CED00E00249084302490860BB
:10051000704700000000FA050CED00E070B5002502
:100520000021284600F0EEF80024002000F00CF92D
:10053000641CE4B2802CF8D36D1CEDB2082DEFD30F
:1005400070BD0000F8B50121042000F035F9142039
:100550008DF8030003208DF802004FF48074ADF88D
:1005600000400B4E69463046FFF724FF6500ADF8AA
:10057000005069463046FFF71DFF012221463046F4
:10058000FFF774FF012229463046FFF76FFFF8BDE1
:10059000000801402DE9F04707460024134D4FF0B5
:1005A00080094FF40078AE1529FA04F23A4041462A
:1005B0002846FFF75BFF012231462846FFF756FF2A
:1005C000002231462846FFF751FF641CE4B2082C94
:1005D000EAD3012231462846FFF748FF3146284634
:1005E000BDE8F0470022FFF741BF000000080140CE
:1005F00070B501220B4D540221462846FFF736FF05
:100600000122160231462846FFF730FF002221461C
:100610002846FFF72BFF31462846BDE870400022F0
:10062000FFF724BF0008014070B50A4D4FF4007475
:10063000002221462846FFF719FF01221102284611
:10064000FFF714FF21462846BDE870400122FFF75E
:100650000DBF00000008014010B500214FF47A7270
:100660000020401C9042FCD3491C9142F8D3FFF774
:1006700069FFAE2000F057F8D52000F054F8802034
:1006800000F051F8A82000F04EF83F2000F04BF8A1
:10069000D32000F048F8002000F045F8402000F09A
:1006A00042F8A12000F03FF8C82000F03CF8DA2022
:1006B00000F039F8122000F036F8812000F033F80D
:1006C000CF2000F030F8D92000F02DF8F12000F014
:1006D0002AF8DB2000F027F8302000F024F8A420CE
:1006E00000F021F8A62000F01EF88D2000F01BF885
:1006F000142000F018F8AF2000F015F8BDE8104005
:10070000FFF70CBF10B50C4640F0B00000F00BF83E
:10071000102040EA141000F006F804F00F00BDE8C5
:100720001040AFF3008010B50446FFF761FF78205A
:10073000FFF730FF0020FFF72DFF2046FFF72AFFCD
:10074000BDE81040FFF770BF10B50446FFF750FF3B
:100750007820FFF71FFF4020FFF71CFF2046FFF720
:1007600019FFBDE81040FFF75FBF000070B50546F8
:10077000094C2946204600F0D1FA2946204600F0CF
:10078000CFFA2946204600F0CDFA29462046BDE89A
:10079000704000F0C9BA000000080040054A002976
:1007A00003D0D1690143D1617047D1698143D161DF
:1007B0007047000000100240054A002903D09169EB
:1007C00001439161704791698143916170470000D5
:1007D00000100240AFF300800CB50022019200929D
:1007E0002748016841F4803101604FF4A06301683B
:1007F00001F4003100910199491C0191009911B94E
:1008000001999942F3D10168890302D50121009130
:1008100000E000920099012930D11A490A6842F09B
:1008200010020A600A6822F003020A600A6842F0B5
:1008300002020A604168416041684160416841F4D8
:1008400080614160416821F47C114160416841F45C
:10085000E8114160016841F080710160016889011F
:10086000FCD5416821F003014160416841F002017B
:1008700041604168C1F381010229FAD10CBD000039
:10088000001002400020024010B50F48016841F0FE
:100890000101016041680D4A1140416001680C4A44
:1008A00011400160016821F480210160416821F458
:1008B000FE0141604FF41F018160FFF78BFF054986
:1008C0004FF00060086010BD001002400000FFF80B
:1008D000FFFFF6FE08ED00E010B501218C07204671
:1008E00000F0D9F8012805D12046BDE810400121CB
:1008F00000F0B2B810BD7FB501210846FFF74EFFEA
:100900004FF08045284600F0DCF80024ADF80A409E
:10091000ADF806404FF6FF71ADF808104721ADF86D
:10092000041001A9284600F005FA012211462846C4
:1009300000F0BDF81C208DF8000001208DF80300A8
:100940008DF801408DF802006846FFF7ABFD7FBDD2
:1009500000214FF0804000F082B80121880700F0AC
:100960007EB8000030B589B001210420FFF716FFE2
:1009700001210820FFF720FF18208DF823004FF4F5
:100980007070ADF8200003208DF8220008A92A48D5
:10099000FFF710FD294D284600F093F80024ADF82C
:1009A0001A40ADF816404FF4FA61ADF8181040F255
:1009B000CF20ADF814008DF81C4005A9284600F0A2
:1009C000B9F901A800F0A0F96020ADF80400ADF875
:1009D0000C400120ADF80600ADF80A4001A92846F8
:1009E00000F074F801A9284600F0BAF801A92846D9
:1009F00000F004F901A9284600F048F90121284631
:100A000000F01EF80121284600F035F801212846A3
:100A100000F0A0F80121284600F0E6F80121284660
:100A200000F02EF90121284600F064F90121284642
:100A300000F015F809B030BD000C0140000800407E
:100A4000002904D0018841F08001018070470188AD
:100A500021F0800101807047C9430182704700295D
:100A600004D0018841F0010101807047018821F024
:100A7000010101807047002905D030F8441F41F47E
:100A800000410180704730F8441FC1F30E0101801E
:100A90007047808C704702460020138A0B40928971
:100AA0000A40002B02D0002A00D001207047002A03
:100AB00003D082890A438281704782898A43828176
:100AC0007047018921F007010181704730B5028C20
:100AD00022F001020284028C8388048B24F07004CB
:100AE00024F003050C882C4322F002020D891543E3
:100AF0004A882A43124DA8420BD0124DA84208D072
:100B0000114DA84205D0114DA84202D0104DA84267
:100B10000FD122F008054A892A4322F004058A8869
:100B20002A4323F4807323F400738D891D43CB89FA
:100B30002B4383800483C9888186028430BD0000F2
:100B4000002C0140003401400040014000440140BD
:100B500000480140028B22F008020A4302837047DA
:100B600070B5028C22F010020284028C8388048B00
:100B700024F4E04424F440760D884FF6FF7404EA30
:100B80000525354322F020020E8904EA0616164395
:100B90004A8804EA02123243114EB04202D0114E8A
:100BA000B04217D122F080024E8904EA061616439D
:100BB00026F040068A8804EA0212324323F4806356
:100BC00023F400638E8904EA86061E43CB8904EA77
:100BD0008303334383800583C9880187028470BD02
:100BE000002C014000340140028B22F400624FF6D9
:100BF000FF7303EA012111430183704770B5028C32
:100C000022F480720284028C8388848B24F0700426
:100C100024F003040D88254322F400720E894FF658
:100C2000FF7404EA062616434A8804EA0222324385
:100C3000114EB04202D0114EB04217D122F40066DC
:100C40004A8904EA0222324322F480668A8804EA4E
:100C50000222324323F4805323F400538E8904EAA2
:100C600006161E43CB8904EA03133343838085832E
:100C7000C9888187028470BD002C01400034014086
:100C8000828B22F008020A438283704770B5028C7F
:100C900022F480520284058C8288838B23F4E04303
:100CA00023F440760C884FF6FF7303EA04243443A0
:100CB00025F400550E8903EA06362E434D8803EAD3
:100CC00005353543094EB04202D0094EB04205D138
:100CD00022F480468A8903EA821232438280848326
:100CE000C988A0F84010058470BD0000002C0140A8
:100CF00000340140828B22F400624FF6FF7303EA56
:100D0000012111438183704700210180418081804E
:100D1000C180018141818181C18170478186704795
:100D20000187704781877047A0F840107047818421
:100D30007047000030B502881B4C1C4DA0420DD0FE
:100D4000A8420BD0B0F1804F08D0194B984205D083
:100D5000184B984202D0184B984203D122F07003EE
:100D60004A881A43154B984206D0154B984203D037
:100D700022F44073CA881A4302808A8882850A88CE
:100D80000285A0420AD0A84208D00E4A904205D05F
:100D90000D4A904202D00D4A904201D1097A018653
:100DA0000121818230BD0000002C0140003401404F
:100DB0000004004000080040000C0040001000400B
:100DC0000014004000400140004401400048014040
:100DD0002DE9FF4101210420FFF7EEFC0121084627
:100DE000FFF7EAFC10248DF80F400825ADF80C50F1
:100DF00003268DF80E60174F03A93846FFF7DAFA7D
:100E000028218DF80F10ADF80C408DF80E6003A965
:100E10003846FFF7CFFA04210020FFF7B7FA019414
:100E200000208DF808008DF8095001248DF80A4043
:100E300001A8FFF771FA0A208DF800008DF8014033
:100E40008DF802408DF803406846FFF72BFBBDE8A4
:100E5000FF8100000008014038B501210820FFF79C
:100E6000ABFC01210420FFF7A7FC10248DF8034000
:100E700040F60640ADF8000003258DF802506946A3
:100E80000848FFF797FA8DF8034040F60340ADF8A5
:100E900000008DF8025069460348FFF78BFAFFF710
:100EA00061FD38BD000C01400008014008B54FF459
:100EB0004070FFF729FBFFF755FDFFF7DDFAFFF75D
:100EC000CBFFFFF7C9FBFFF716FDFFF781FF0121FD
:100ED0000820FFF771FC10258DF803500120ADF8B4
:100EE000000003248DF80240174E69463046FFF794
:100EF00061FA01210420FFF75FFC8DF803506D02B9
:100F0000ADF800508DF80240104C69462046FFF7BE
:100F100051FA01213046FFF7A7FA29462046FFF78C
:100F2000A3FA1420FFF722FC0820FFF796F90A2005
:100F3000FFF71CFC0220FFF790F90120FFF78DF965
:100F40000B20FFF713FCFBE7000C014000080140F9
:100F5000700F000800000020200000002801000899
:100F6000900F0008200000206006000044010008E7
:100F70000000000000000000000000000000000071
:100F80000000000000000000000000000000000061
:04000005080000ED02
:00000001FF
