:020000040800F2
:100000007006002089010008910100089301000892
:100010009501000897010008990100080000000000
:100020000000000000000000000000009B0100082C
:100030009D010008000000009F010008A1010008C8
:10004000A3010008A3010008A3010008A301000800
:10005000A3010008A3010008A3010008A3010008F0
:10006000A3010008A301000825030008A30100085C
:10007000A3010008A3010008A3010008A3010008D0
:10008000A3010008A3010008A3010008A3010008C0
:10009000A3010008A3010008A3010008A3010008B0
:1000A000A3010008A3010008A3010008A3010008A0
:1000B0001D0C0008A3010008A3010008A30100080B
:1000C000A3010008A3010008A3010008A301000880
:1000D000A3010008A3010008A3010008A301000870
:1000E000A3010008A3010008A301000800F002F822
:1000F00000F03AF80AA090E8000C82448344AAF188
:100100000107DA4501D100F02FF8AFF2090EBAE885
:100110000F0013F0010F18BFFB1A43F0010318473B
:10012000501D0000701D0000103A24BF78C878C12F
:10013000FAD8520724BF30C830C144BF04680C60ED
:10014000704700000023002400250026103A28BF35
:1001500078C1FBD8520728BF30C148BF0B60704739
:100160001FB51FBD10B510BD00F031F81146FFF7E7
:10017000F7FF01F0DDF800F04FF803B4FFF7F2FFEE
:1001800003BC00F057F800000948804709480047C1
:10019000FEE7FEE7FEE7FEE7FEE7FEE7FEE7FEE737
:1001A000FEE7FEE704480549054A064B7047000094
:1001B000CD0B0008ED000008700000207006002044
:1001C000700200207002002070477047704775462B
:1001D00000F02CF8AE4605006946534620F00700B3
:1001E000854618B020B5FFF7DDFFBDE820404FF091
:1001F00000064FF000074FF000084FF0000B21F011
:100200000701AC46ACE8C009ACE8C009ACE8C009DD
:10021000ACE8C0098D46704710B50446AFF30080C6
:100220002046BDE81040FFF7A8BF00000048704717
:100230001000002001491820ABBEFEE72600020096
:10024000704700B502464FF47A7302E0184600F09A
:1002500010F8521E501CF9D100BD30B504464FF4C1
:100260007A7502E02846FFF7ECFF641E601CF9D1A6
:1002700030BD00EBC000C1004FF0E0204161002123
:100280008161052101610169C903FCD50421016176
:100290007047000070B5002500241E4E00F082FF5C
:1002A000706804446D1C052DF8DB00F08DFF0526F9
:1002B00094FBF6F001F065F9174A184B01F078F954
:1002C00001F02EF9054604EB041090FBF6F06421D2
:1002D00090FBF1F201FB1204284601F067FA024696
:1002E00006230721012000F08DFB2E220E21012084
:1002F00000F05CFB022322460F21012000F082FB6C
:100300006420FFF79EFF0648854201DC012070BD96
:10031000002070BD000000209CC420B07268913F96
:100320000000A0412DE9F041102000F031F800B3A9
:100330004FF080460025B58400F0B8FC304600F050
:1003400050FD0E4CA0600E4F1021384600F0D1F841
:100350000028F9D1304600F044FDE06000F0A1FC37
:10036000B08C6060217821B1C1EB0141084460602C
:100370002570BDE8F041102000F004B80000002016
:100380000008014001490860704700001404014062
:1003900001460020054A12680A40044B14331B68CA
:1003A0000B4202D0002A00D0012070470004014017
:1003B00030B51B4A83790168002B2AD013688B4320
:1003C0001360111D0B680468A3430B60017911448D
:1003D0000B68046823430B60114C083421680368E0
:1003E00099432160231D19680568A9431960417963
:1003F000102905D011440A68006802430A6030BD24
:10040000216802681143216019680068014319607E
:1004100030BD0079104402688A43026030BD00009C
:100420000004014010B58A07120F0F23934021F0FA
:100430000304054921448C689C438C608B68904080
:1004400003438B6010BD0000000001402DE9F04126
:100450000022CC7804F00F03E40601D58C78234306
:100460000C784FF00F0714F0FF0F4FF0010C1CD069
:1004700005680CFA02F40E882640A64211D19600B7
:1004800007FA06F825EA080503FA06F848EA05051A
:10049000CE78282E02D0482E02D002E0446100E03F
:1004A0000461521C082AE4D305600A88FF2A1ED979
:1004B0004568002202F108060CFA06F40E88264070
:1004C000A64210D1960007FA06F825EA080503FAB5
:1004D00006F848EA0505CE78282E00D14461CE788A
:1004E000482E00D10461521C082AE3D34560BDE8C0
:1004F000F0810246002092680A4200D00120704735
:100500004161704701617047002A01D00161704765
:100510004161704708B50121082000F0EFFA04207E
:100520008DF803004FF47040ADF8000003208DF803
:10053000020069460148FFF789FF08BD000C014031
:100540007FB5FFF7E7FF734D4FF480512846FFF763
:10055000D0FF009069142846FFF7CBFF01904FF4BD
:1005600080412846FFF7C5FF02904FF4004128461E
:10057000FFF7BFFF0390009801280FD101980128D1
:100580000CD10298012809D10398012806D1FFF760
:1005900081FE18B90324462000F08AFA009850B969
:1005A0000198012807D10298012804D1039810B9B5
:1005B000FFF770FE10B1009828B10EE00024502023
:1005C00000F076FAA3E00198012806D1029820B93C
:1005D000039810B9FFF75EFE10B1009828B10EE045
:1005E0000024502000F064FA91E0019838B9029894
:1005F000012804D1039810B9FFF74CFE18B10098F8
:10060000012805D00EE000243C2000F051FA7EE0E5
:100610000198012806D1029820B9039810B9FFF774
:1006200039FE10B1009828B10FE00B24322000F001
:100630003FFA6CE0019840B90298012805D103986F
:10064000012802D1FFF726FE18B10098012805D035
:100650000DE01624322000F02BFA58E0019830B952
:10066000029820B9039810B9FFF714FE10B1009852
:1006700028B10EE06F24322000F01AFA47E001980A
:1006800038B9029828B90398012802D1FFF702FE71
:1006900010B1009828B110E0DE24322000F008FAF2
:1006A00035E00198012808D10298012805D1039866
:1006B00018B9FFF7EFFD012802D0009828B10FE02C
:1006C0000624322000F0F4F921E00198012807D136
:1006D000029828B9039818B9FFF7DCFD012802D069
:1006E000009828B113E00624322000F0E1F90EE072
:1006F000019860B90298012809D1039838B9FFF729
:10070000C9FD012803D10624322000F0D1F904B03C
:10071000204670BD000C014070B50F23C278012641
:100720000178002A1ED0144A126802F4E062C2F571
:10073000E062120AC2F10404D3404578A5408278F1
:100740001A402A43120101F1E02181F800240078C7
:1007500000F01F018E404009800000F1E020C0F849
:10076000006170BD01F01F0086404809800000F163
:10077000E020C0F8806170BD0CED00E00249084344
:1007800002490860704700000000FA050CED00E027
:1007900070B500250021284600F0F6F8002400205E
:1007A00000F074F9641CE4B2802CF8D36D1CEDB237
:1007B000082DEFD370BD0000F8B50121042000F032
:1007C0009DF914208DF8030003208DF802004FF4EA
:1007D0008074ADF800400B4E69463046FFF736FE98
:1007E0006500ADF8005069463046FFF72FFE012244
:1007F00021463046FFF788FE012229463046FFF7A2
:1008000083FEF8BD000801402DE9F04707460024AB
:10081000134D4FF080094FF40078AE1529FA04F219
:100820003A4041462846FFF76FFE012231462846EE
:10083000FFF76AFE002231462846FFF765FE641C7A
:10084000E4B2082CEAD3012231462846FFF75CFEC9
:1008500031462846BDE8F0470022FFF755BE0000AC
:100860000008014070B501220B4D54022146284674
:10087000FFF74AFE0122160231462846FFF744FEE2
:10088000002221462846FFF73FFE31462846BDE8B4
:1008900070400022FFF738BE0008014070B50A4DD5
:1008A0004FF40074002221462846FFF72DFE012256
:1008B00011022846FFF728FE21462846BDE8704071
:1008C0000122FFF721BE00000008014010B5002101
:1008D0004FF47A720020401C9042FCD3491C914294
:1008E000F8D3FFF769FFAE2000F0BFF8D52000F085
:1008F000BCF8802000F0B9F8A82000F0B6F83F203E
:1009000000F0B3F8D32000F0B0F8002000F0ADF80C
:10091000402000F0AAF8A12000F0A7F8C82000F0BD
:10092000A4F8DA2000F0A1F8122000F09EF881204F
:1009300000F09BF8CF2000F098F8D92000F095F84F
:10094000F12000F092F8DB2000F08FF8302000F06A
:100950008CF8A42000F089F8A62000F086F88D20FD
:1009600000F083F8142000F080F8AF2000F07DF84C
:10097000BDE81040FFF70CBF0346012000E05843DC
:10098000491E4A1CFBD1704710B50C4640F0B00020
:1009900000F06BF8102040EA141000F066F804F044
:1009A0000F00BDE8104000F060B800002DE9F041F4
:1009B0001546491E461ECF007006F9B2000EFFF71D
:1009C000E3FF00240E48203D00EB0515285D00F0F4
:1009D0005DF8641CE4B2082CF8D3012000EB46005B
:1009E000F9B2C0B2FFF7D0FF00242819007A00F056
:1009F0004DF8641CE4B2082CF7D3BDE8F081000088
:100A0000801800082DE9F04781460F4690461E46A3
:100A100000240A2512E0311B491E0A20FFF7ACFF13
:100A2000B8FBF0F2B2FBF5F005FB10223819C1B2A9
:100A300030324846FFF7BAFF641CE4B2B442EAD34E
:100A4000BDE8F0872DE9F04107460D461646002423
:100A500006E02819C1B23846FFF7A8FF641CE4B2CB
:100A6000325D002AF5D1BDE8F08110B50446FFF7EC
:100A7000F9FE7820FFF7C8FE0020FFF7C5FE2046EC
:100A8000FFF7C2FEBDE81040FFF708BF10B50446EF
:100A9000FFF7E8FE7820FFF7B7FE4020FFF7B4FE2F
:100AA0002046FFF7B1FEBDE81040FFF7F7BE00009B
:100AB00070B50546094C2946204600F0D7FA29466C
:100AC000204600F0D5FA2946204600F0D3FA294600
:100AD0002046BDE8704000F0CFBA0000000800409A
:100AE000054A002903D0D1690143D1617047D1691A
:100AF0008143D1617047000000100240054A00297F
:100B000003D091690143916170479169814391617B
:100B10007047000000100240AFF300800CB50022C7
:100B2000019200922748016841F4803101604FF43E
:100B3000A063016801F4003100910199491C019101
:100B4000009911B901999942F3D10168890302D53D
:100B50000121009100E000920099012930D11A4949
:100B60000A6842F010020A600A6822F003020A6072
:100B70000A6842F002020A604168416041684160CF
:100B8000416841F480614160416821F47C11416019
:100B9000416841F4E8114160016841F080710160F1
:100BA00001688901FCD5416821F003014160416879
:100BB00041F0020141604168C1F381010229FAD18B
:100BC0000CBD0000001002400020024010B50F488C
:100BD000016841F00101016041680D4A1140416026
:100BE00001680C4A11400160016821F48021016014
:100BF000416821F4FE0141604FF41F018160FFF75D
:100C00008BFF05494FF00060086010BD00100240E6
:100C10000000FFF8FFFFF6FE08ED00E010B501212F
:100C20008C07204600F0DFF8012809D1054801783B
:100C3000491C01702046BDE81040012100F0B4B805
:100C400010BD0000000000207FB501210846FFF71D
:100C500047FF4FF08045284600F0DBF80024ADF850
:100C60000A40ADF806404FF6FF71ADF80810472175
:100C7000ADF8041001A9284600F002FA012211463D
:100C8000284600F0BCF81C208DF8000001208DF8EB
:100C900003008DF801408DF802006846FFF73CFD27
:100CA0007FBD00214FF0804000F081B8012188070E
:100CB00000F07DB830B589B001210420FFF710FFA6
:100CC00001210820FFF71AFF18208DF823004FF4A8
:100CD0007070ADF8200003208DF8220008A92A4882
:100CE000FFF7B4FB294D284600F093F80024ADF837
:100CF0001A40ADF816406321ADF8181040F2CF202D
:100D0000ADF814008DF81C4005A9284600F0B8F98C
:100D100001A800F0A1F96020ADF80400ADF80C4086
:100D20000120ADF80600ADF80A4001A9284600F000
:100D300075F801A9284600F0BBF801A9284600F083
:100D400005F901A9284600F049F90121284600F0DB
:100D50001FF80121284600F036F80121284600F04E
:100D6000A1F80121284600F0E7F80121284600F00B
:100D70002FF90121284600F065F90121284600F0ED
:100D800016F809B030BD0000000C0140000800401A
:100D9000002904D0018841F080010180704701885A
:100DA00021F0800101807047C9430182704700290A
:100DB00004D0018841F0010101807047018821F0D1
:100DC000010101807047002905D030F8441F41F42B
:100DD00000410180704730F8441FC1F30E010180CB
:100DE0007047808C704702460020138A0B4092891E
:100DF0000A40002B02D0002A00D001207047002AB0
:100E000003D082890A438281704782898A43828122
:100E10007047018921F007010181704730B5028CCC
:100E200022F001020284028C8388048B24F0700477
:100E300024F003050C882C4322F002020D8915438F
:100E40004A882A43124DA8420BD0124DA84208D01E
:100E5000114DA84205D0114DA84202D0104DA84214
:100E60000FD122F008054A892A4322F004058A8816
:100E70002A4323F4807323F400738D891D43CB89A7
:100E80002B4383800483C9888186028430BD00009F
:100E9000002C01400034014000400140004401406A
:100EA00000480140028B22F008020A430283704787
:100EB00070B5028C22F010020284028C8388048BAD
:100EC00024F4E04424F440760D884FF6FF7404EADD
:100ED0000525354322F020020E8904EA0616164342
:100EE0004A8804EA02123243114EB04202D0114E37
:100EF000B04217D122F080024E8904EA061616434A
:100F000026F040068A8804EA0212324323F4806302
:100F100023F400638E8904EA86061E43CB8904EA23
:100F20008303334383800583C9880187028470BDAE
:100F3000002C014000340140028B22F400624FF685
:100F4000FF7303EA012111430183704770B5028CDE
:100F500022F480720284028C8388848B24F07004D3
:100F600024F003040D88254322F400720E894FF605
:100F7000FF7404EA062616434A8804EA0222324332
:100F8000114EB04202D0114EB04217D122F4006689
:100F90004A8904EA0222324322F480668A8804EAFB
:100FA0000222324323F4805323F400538E8904EA4F
:100FB00006161E43CB8904EA0313334383808583DB
:100FC000C9888187028470BD002C01400034014033
:100FD000828B22F008020A438283704770B5028C2C
:100FE00022F480520284058C8288838B23F4E043B0
:100FF00023F440760C884FF6FF7303EA042434434D
:1010000025F400550E8903EA06362E434D8803EA7F
:1010100005353543094EB04202D0094EB04205D1E4
:1010200022F480468A8903EA8212324382808483D2
:10103000C988A0F84010058470BD0000002C014054
:1010400000340140828B22F400624FF6FF7303EA02
:1010500001211143818370470021018041808180FB
:10106000C180018141818181C18170478186704742
:101070000187704781877047A0F8401070470000D3
:1010800030B502881B4C1C4DA0420DD0A8420BD09D
:10109000B0F1804F08D0194B984205D0184B9842B8
:1010A00002D0184B984203D122F070034A881A43A9
:1010B000154B984206D0154B984203D022F440734A
:1010C000CA881A4302808A8882850A880285A042DB
:1010D0000AD0A84208D00E4A904205D00D4A90424C
:1010E00002D00D4A904201D1097A01860121818204
:1010F00030BD0000002C01400034014000040040DD
:1011000000080040000C00400010004000140040A7
:101110000040014000440140004801402DE9FF41EA
:1011200001210420FFF7EAFC01210846FFF7E6FC55
:1011300010248DF80F400825ADF80C5003268DF8CB
:101140000E60174F03A93846FFF780F928218DF864
:101150000F10ADF80C408DF80E6003A93846FFF76C
:1011600075F904210020FFF75DF9019400208DF846
:1011700008008DF8095001248DF80A4001A8FFF7F6
:1011800017F90A208DF800008DF801408DF8024013
:101190008DF803406846FFF7BFFABDE8FF81000005
:1011A0000008014010B5074C08212046FFF7AAF9B6
:1011B0000F20FFF75EF82046BDE810400821FFF73A
:1011C0009FB900000008014008210148FFF798B9C5
:1011D0000008014038B501210820FFF78FFC0121EC
:1011E0000420FFF78BFC10248DF8034040F60640E6
:1011F000ADF8000003258DF8025069460848FFF756
:1012000025F98DF8034040F60340ADF800008DF855
:10121000025069460348FFF719F9FFF74BFD38BD47
:10122000000C01400008014070B5134E4FF40064FB
:1012300021463046FFF764F9651029463046FFF72E
:1012400061F904213046FFF75BF902213046FFF7D0
:1012500059F92146094C2046FFF752F92946204604
:10126000FFF750F901212046FFF74CF92046BDE871
:1012700070400221FFF744B9000C01400008014012
:1012800070B5134E4FF4006421463046FFF738F92D
:10129000651029463046FFF735F904213046FFF73F
:1012A00031F902213046FFF72BF92146094C20463F
:1012B000FFF726F929462046FFF724F901212046A9
:1012C000FFF720F92046BDE870400221FFF718B96A
:1012D000000C01400008014070B5134E4FF400644B
:1012E00021463046FFF70CF9651029463046FFF7D6
:1012F00009F904213046FFF705F902213046FFF7CE
:10130000FFF82146094C2046FFF7FCF82946204605
:10131000FFF7F6F801212046FFF7F2F82046BDE876
:1013200070400221FFF7EEB8000C014000080140B8
:1013300008B54FF44070FFF721FAFFF7BBFCFFF749
:10134000E9F8FFF747FFFFF7C1FAFFF77DFCFFF76A
:10135000E5FE01210820FFF7D1FB10248DF80340A2
:101360000120ADF8000003258DF802504C4E69466F
:101370003046FFF76BF801210420FFF7BFFB8DF823
:1013800003406402ADF800408DF80250454D6946B7
:101390002846FFF75BF801213046FFF7B3F82146F6
:1013A0002846FFF7AFF8FFF7CBF80B2857D026DC1D
:1013B000C0B301283FD0022847D00628EBD1FFF761
:1013C000E7F9012138A20846FFF73CFBFFF784FF4D
:1013D0000220FEF742FFFFF727FF0220FEF73DFF46
:1013E00000F072F80120FEF738FFFFF71DFF022022
:1013F000FEF733FF4FF44870FEF723FFCBE71628C4
:1014000037D06F283FD0DE28C5D1FFF7C1F90121C1
:1014100027A20846FFF716FB00F056F80020FEF75B
:101420001CFFB8E7FFE7012123A20846FFF70AFBEC
:10143000FFF7FAFEAFE7FFF7ABF9012120A208465C
:10144000FFF700FBFFF71CFFA5E7FFF7A1F901215C
:1014500017A20846FFF7F6FA00F036F89BE7FFF709
:1014600097F9012116A20846FFF7ECFAFFF708FFEB
:1014700091E7FFF78DF901210DA20846FFF7E2FA87
:1014800000F022F887E7FFF783F901210CA2084654
:10149000FFF7D8FAFFF7F4FE0020FEF7DEFE7AE74A
:1014A000000C0140000801406175746F00000000ED
:1014B0007269676874000000666F72776172640019
:1014C0006C6566740000000070B5134E4FF4006444
:1014D00021463046FFF716F8651029463046FFF7DB
:1014E0000FF804213046FFF70BF802213046FFF7D2
:1014F00009F82146094C2046FFF704F82946204602
:10150000FEF7FEFF01212046FEF7FAFF2046BDE868
:1015100070400221FEF7F6BF000C014000080140B8
:1015200021F00042A2F16052B2F5801F01F00043A9
:1015300028BFD2F17F6C0BD95FEA001C43EAC202DC
:1015400042EB507018BF704728BF20F00100704771
:10155000B2F5801FBCBF184670474FEA410C1CF51E
:10156000001F02D2084600F086B970B500F0CAF834
:1015700000000089FFF7F6BF4FF00040A0F58000A3
:10158000704710F0004248BF4042B0FA80F310FAB2
:1015900003F10AD0C3F11D0303F580634FEA415004
:1015A00002EB035202EBD12170474FF0000070476D
:1015B000DFF848C170B51CEA111E1EBF1CEA1315E6
:1015C0009EEA0C0F95EA0C0F00F06F8081EA03048D
:1015D00023EA4C134EEAD47E21EA4C1141F48011E7
:1015E00043F48013AE44A1FB024CA0FB0365AEF1B3
:1015F0007F7E361955EB0C05A1FB034C4CF1000323
:10160000A0FB021C16EB0C06654153F100030942D6
:1016100018BF46F0010613F4007F0BD14FEA0331E7
:101620004FEA0530340341EA155140EA16506FF095
:1016300003020AE04FEAC3214FEAC520F40241EA5F
:10164000555140EA56506FF0020202EB2E4201EB78
:10165000025585EACE710AD05FEA440C18BF24F027
:10166000004450F1000041F1000120EAD47040F242
:10167000FE7C624500D270BDA84214BF4FF080448A
:101680004FF04044002E08BF0024BEF1806FA8BF79
:10169000A1F1C041BDE8704080F282804FF00000AF
:1016A00001F1C04101F0004170479EEA0C0F0CEAC5
:1016B000131518BF95EA0C0F06D04FF0000081EA11
:1016C000030E0EF0004170BD00F01CF88900013ED1
:1016D00000F007B800F009B84FEA430C5FEA5C5C21
:1016E00008D081EA030100F05BB84FEA410C5FEAE1
:1016F0005C5CF6D14FF00000014970470000FF0725
:101700000000F87F0EF1020E2EF0030E5EF8046B5F
:10171000364205D4012A43EB030515F5001F12D804
:10172000012841EB010C1CF5001F0CD80ED14FEA2B
:10173000D17C15F5001F0CEB4C0C0CF1020C08BF12
:101740004CEBD37C04E04FF0080C01E04FEAD37C73
:101750000CEB4C0526FA05F606F00706B6F1040C6C
:1017600006D20EEB860CBDE870404CF0010C6047D1
:10177000DFE80CF0090B02024FF000414FF00000CF
:10178000A1F5002170BD19461046012851EB010456
:1017900018BFD4F5001484BF002001F0004170BDD3
:1017A0000808A0F500114FEA31017047C10DD1F1D1
:1017B0009E0206DB4FEA002343F0004323FA02F0C7
:1017C0007047004207D54FEA4001B1F1FE4F02D207
:1017D0004FF00000704710B500F007F849922480E0
:1017E000002070476FEA200070470EF1020E2EF0C5
:1017F000030E5EF8044B244204D44FEA4102B2F1D6
:101800007F4F11D84FEA4003B3F17F4F0CD80ED170
:101810004FEAD07CB2F17F4F0CEB4C0C0CF1020C78
:1018200008BF4CEBD17C04E04FF0080C01E04FEA1C
:10183000D17C0CEB4C0324FA03F404F00704B4F15C
:10184000040C06D20EEB840CBDE810404CF0010CE9
:101850006047DFE80CF0070802024FF00040A0F5F7
:10186000800010BD0846420018BFD2F1807288BFC8
:1018700000F0004010BDFF2141EAD050C005704784
:101880000000000000000000000000000000000058
:10189000000000F8000000000000003330000000ED
:1018A00000100C06100C06000000000000000000F4
:1018B00040C07840C0784000043F04043F04040066
:1018C000007088FC08300000001820FF211E000076
:1018D000F008F000E018000000211C031E211E008B
:1018E00000F00888700000001E2123241927211011
:1018F00010160E00000000000000000000000000B4
:10190000000000E01804020000000007182040005A
:1019100000020418E000000000402018070000004A
:10192000404080F0804040000202010F01020200AE
:10193000000000F0000000000101011F0101010092
:10194000000000000000000080B0700000000000F7
:101950000000000000000000000101010101010180
:101960000000000000000000003030000000000017
:1019700000000000806018040060180601000000EC
:1019800000E010080810E000000F102020100F00E9
:10199000001010F8000000000020203F2020000070
:1019A00000700808088870000030282422213000C8
:1019B00000300888884830000018202020110E00D0
:1019C0000000C02010F8000000070424243F240079
:1019D00000F80888880808000019212020110E004E
:1019E00000E0108888180000000F112020110E0060
:1019F00000380808C83808000000003F0000000058
:101A00000070880808887000001C222121221C0018
:101A100000E010080810E0000000312222110F0041
:101A2000000000C0C00000000000003030000000D6
:101A30000000008000000000000080600000000046
:101A4000000080402010080000010204081020005F
:101A500040404040404040000404040404040400AA
:101A6000000810204080000000201008040201003F
:101A7000007048080808F00000000030360100003F
:101A8000C030C828E810E0000718272423140B00F2
:101A90000000C038E0000000203C2302022738206C
:101AA00008F8888888700000203F202020110E0050
:101AB000C030080808083800071820202010080047
:101AC00008F808080810E000203F202020100F0030
:101AD00008F88888E8081000203F202023201800FC
:101AE00008F88888E8081000203F20000300000064
:101AF000C03008080838000007182020221E020005
:101B000008F808000008F808203F210101213F20C3
:101B1000000808F8080800000020203F20200000EE
:101B200000000808F8080800C08080807F000000DE
:101B300008F888C028180800203F20012638200017
:101B400008F8080000000000203F2020202030007E
:101B500008F8F800F8F80800203F003F003F200098
:101B600008F830C00008F808203F200007183F00A0
:101B7000E01008080810E0000F10202020100F00CF
:101B800008F808080808F000203F210101010000C2
:101B9000E01008080810E0000F18242438504F0007
:101BA00008F8888888887000203F2000030C3020C7
:101BB00000708808080838000038202121221C0005
:101BC000180808F8080818000000203F200000004E
:101BD00008F808000008F808001F202020201F0037
:101BE0000878880000C83808000007380E01000097
:101BF000F80800F80008F800033C0700073C030061
:101C0000081868808068180820302C03032C3020C6
:101C10000838C800C83808000000203F2000000035
:101C200010080808C838080020382621202018008D
:101C3000000000FE020202000000007F4040400061
:101C4000000C30C000000000000000010638C00099
:101C500000020202FE000000004040407F00000041
:101C60000000040202020400000000000000000066
:101C70000000000000000000808080808080808064
:101C8000000202040000000000000000000000004C
:101C900000008080808000000019242222223F2042
:101CA00008F8008080000000003F112020110E0085
:101CB0000000008080800000000E11202020110014
:101CC000000000808088F800000E112020103F20C6
:101CD0000000808080800000001F2222222213004A
:101CE000008080F0888888180020203F2020000095
:101CF0000000808080808000006B9494949360004A
:101D000008F8008080800000203F210000203F2054
:101D100000809898000000000020203F2020000054
:101D2000000000809898000000C08080807F000044
:101D300008F8000080808000203F24022D30200021
:101D4000000808F8000000000020203F20200000CC
:101D50008080808080808000203F20003F20003FE6
:101D60008080008080800000203F210000203F20F4
:101D70000000808080800000001F202020201F00A5
:101D8000808000808000000080FFA12020110E00D4
:101D90000000008080808000000E112020A0FF80C5
:101DA000808080008080800020203F212000010072
:101DB00000008080808080000033242424241900C7
:101DC000008080E0808000000000001F20200000D4
:101DD0008080000000808000001F202020103F2015
:101DE000808080000080808000010E3008060100A5
:101DF00080800080008080800F300C030C300F004A
:101E000000808000808080000020312E0E31200074
:101E1000808080000080808080818E7018060100A4
:101E200000808080808080000021302C22213000C2
:101E300000000000807C020200000000003F4040E3
:101E400000000000FF00000000000000FF00000094
:101E50000002027C800000000040403F00000000C3
:101E6000000601010202040400000000000000005E
:101E7000901E00080000002010000000280100084B
:101E8000A01E0008100000206006000044010008A9
:101E90000000000000000000000000000000000042
:04000005080000ED02
:00000001FF
