:020000040800F2
:10000000600600206D0100087501000877010008F6
:10001000790100087B0100087D0100080000000054
:100020000000000000000000000000007F01000848
:10003000810100080000000083010008850100081C
:100040008701000887010008870100088701000870
:100050008701000887010008870100088701000860
:100060008701000887010008870100088701000850
:100070008701000887010008870100088701000840
:100080008701000887010008870100088701000830
:100090008701000887010008870100088701000820
:1000A0008701000887010008870100088701000810
:1000B0008701000887010008870100088701000800
:1000C00087010008870100088701000887010008F0
:1000D00087010008870100088701000887010008E0
:1000E00087010008870100088701000800F002F876
:1000F00000F02CF80AA090E8000C82448344AAF196
:100100000107DA4501D100F021F8AFF2090EBAE893
:100110000F0013F0010F18BFFB1A43F0010318473B
:1001200040060000500600000023002400250026A1
:10013000103A28BF78C1FBD8520728BF30C148BF4A
:100140000B6070471FB51FBD10B510BD00F031F832
:100150001146FFF7F7FF00F0FBFA00F04FF803B489
:10016000FFF7F2FF03BC00F057F800000948804792
:1001700009480047FEE7FEE7FEE7FEE7FEE7FEE789
:10018000FEE7FEE7FEE7FEE704480549054A064BA1
:10019000704700003D050008ED00000860000020E9
:1001A0006006002060020020600200207047704757
:1001B0007047754600F02CF8AE4605006946534678
:1001C00020F00700854618B020B5FFF7DDFFBDE839
:1001D00020404FF000064FF000074FF000084FF0AE
:1001E000000B21F00701AC46ACE8C009ACE8C0093F
:1001F000ACE8C009ACE8C0098D46704710B50446AC
:10020000AFF300802046BDE81040FFF7A8BF000014
:10021000004870470000002001491820ABBEFEE7EF
:10022000260002007047000008B50120ADF800006C
:1002300018208DF8030003208DF80200694602485B
:1002400000F004F808BD0000000801402DE9F0416D
:100250000022CC7804F00F03E40601D58C78234308
:100260000C784FF00F0714F0FF0F4FF0010C1CD06B
:1002700005680CFA02F40E882640A64211D19600B9
:1002800007FA06F825EA080503FA06F848EA05051C
:10029000CE78282E02D0482E02D002E0446100E041
:1002A0000461521C082AE4D305600A88FF2A1ED97B
:1002B0004568002202F108060CFA06F40E88264072
:1002C000A64210D1960007FA06F825EA080503FAB7
:1002D00006F848EA0505CE78282E00D14461CE788C
:1002E000482E00D10461521C082AE3D34560BDE8C2
:1002F000F0810000054A002903D0D1690143D16192
:100300007047D1698143D1617047000000100240FD
:10031000054A002903D091690143916170479169B1
:1003200081439161704700000010024010B500F059
:100330002BF84FF48034204600F066F8312000F0AE
:1003400043F80028FAD04FF4E011204600F088F876
:10035000012000F07FF8392000F036F80028FAD0AC
:10036000022000F087F800F047F80828FBD1C00110
:1003700000F066F801210420FFF7CAFF0121BDE863
:1003800010400846FFF7B6BF0C48016841F0010174
:10039000016041680A4A114041600168094A114000
:1003A0000160016821F480210160416821F4FE01AF
:1003B00041604FF41F01816070470000001002404F
:1003C0000000FFF8FFFFF6FE034600205909094A26
:1003D00001290AD002290AD0516A03F01F02012321
:1003E00093400B4200D0012070471168F5E7116A75
:1003F000F3E70000001002400248406800F00C00E3
:1004000070470000001002400C490A6822F4803254
:100410000A600A6822F480220A60B0F5803F07D0A3
:10042000B0F5802F03D1086840F4A0200860704721
:10043000086840F4803008607047000000100240F7
:10044000034A516821F4E0610143516070470000A4
:100450000010024001490866704700000000424257
:10046000034B5A6822F47C120843104358607047CB
:1004700000100240034A516821F00301014351601A
:100480007047000000100240AFF300800CB500225E
:10049000019200922748016841F4803101604FF4D5
:1004A000A063016801F4003100910199491C019198
:1004B000009911B901999942F3D10168890302D5D4
:1004C0000121009100E000920099012930D11A49E0
:1004D0000A6842F010020A600A6822F003020A6009
:1004E0000A6842F002020A60416841604168416066
:1004F000416841F480614160416821F47C114160B0
:10050000416841F4E8114160016841F08071016087
:1005100001688901FCD5416821F00301416041680F
:1005200041F0020141604168C1F381010229FAD121
:100530000CBD0000001002400020024010B50F4822
:10054000016841F00101016041680D4A11404160BC
:1005500001680C4A11400160016821F480210160AA
:10056000416821F4FE0141604FF41F018160FFF7F3
:100570008BFF05494FF00060086010BD001002407D
:100580000000FFF8FFFFF6FE08ED00E030B587B091
:1005900044F61F60ADF814004720ADF810000024A9
:1005A000ADF81640ADF812404FF0804504A928463A
:1005B00000F080F86021ADF800100121ADF80210C4
:1005C00042F21071ADF80610ADF8084069462846B1
:1005D00000F026F80821284600F066F80121284698
:1005E00000F006F80121284600F00EF807B030BDF3
:1005F000002904D0018841F0800101807047018802
:1006000021F0800101807047002904D0018841F069
:10061000010101807047018821F0010101807047CC
:1006200030B5028C22F001020284028C8388048B94
:1006300024F0700424F003050C882C4322F00202FD
:100640000D8915434A882A43124DA8420BD0124DFA
:10065000A84208D0114DA84205D0114DA84202D0A1
:10066000104DA8420FD122F008054A892A4322F0F2
:1006700004058A882A4323F4807323F400738D8948
:100680001D43CB892B4383800483C98881860284E0
:1006900030BD0000002C014000340140004001400A
:1006A0000044014000480140028B22F008020A4346
:1006B0000283704730B502881B4C1C4DA0420DD000
:1006C000A8420BD0B0F1804F08D0194B984205D00A
:1006D000184B984202D0184B984203D122F0700375
:1006E0004A881A43154B984206D0154B984203D0BE
:1006F00022F44073CA881A4302808A8882850A8855
:100700000285A0420AD0A84208D00E4A904205D0E5
:100710000D4A904202D00D4A904201D1097A0186D9
:100720000121818230BD0000002C014000340140D5
:100730000004004000080040000C00400010004091
:1007400000140040004001400044014000480140C6
:10075000FFF7ECFDFFF768FDFFF718FFFEE700006D
:100760007007000800000020600600002801000853
:04000005080000ED02
:00000001FF
