:020000040800F2
:100000004005002001010008F9040008BD040008B3
:10001000F5040008090300083B1000080000000078
:10002000000000000000000000000000A907000818
:100030000D03000800000000810500080909000800
:100040001701000817010008170100081701000830
:100050001701000817010008170100081701000820
:100060001701000817010008170100081701000810
:100070001701000817010008170100081701000800
:1000800017010008170100081701000817010008F0
:1000900017010008170100081701000817010008E0
:1000A00017010008170100081701000817010008D0
:1000B000170100084D0A0008170100081701000881
:1000C00017010008170100081701000817010008B0
:1000D00017010008190E0008170100081701000891
:1000E000170100081701000817010008DFF80CD0FD
:1000F00000F0F8F800480047A91200084005002069
:1001000005480047FEE7FEE7FEE7FEE7FEE7FEE7FD
:10011000FEE7FEE7FEE7FEE7ED000008F0B480EA48
:100120000102D40F4200B2EB410F02D20246084650
:1001300011464A0042D0C30DDDB2C1F3C752AD1A19
:10014000202D35DAC1F3160141F4000204B1524208
:10015000C5F1200602FA06F12A411044B3EBD05F44
:1001600023D0C4B1012DA0EBC35009DCF0BC4FF08B
:10017000004202EAC352DBB200F5000000F083B88F
:10018000400000F1807000EBC350A0F1807040EAA5
:10019000D170490009E0490841EAC071A0EBC350A1
:1001A00000F50000400800EBC350F0BC00F062B85E
:1001B0006142012202EB4101001BF6E7F0BC7047EF
:1001C00081F00041AAE780F00040A7E780EA010241
:1001D00010B502F00043400022D04A001FD0010EAB
:1001E00001EB1261C0F35600C2F3560240F4000066
:1001F00042F40002A0FB022000047F39140400D066
:10020000401C50EA124001D44000491EC2B20C0604
:1002100004EBD010401C4008802A02D003E00020EC
:1002200010BD20F00100002900DA0020184310BDA5
:10023000C10F80EAE0700844CA079623002100F04D
:1002400022B800F0004220F00040C10DC0F31600BB
:1002500040F400007F2901DA00207047962903DC72
:10026000C1F19601C84001E096398840002AF4D0D7
:10027000404270470029A8BF7047401C490008BF92
:1002800020F00100704710B4B0FA80FC00FA0CF0C6
:1002900050EA010404BF10BC704749B1CCF12004FE
:1002A00021FA04F411FA0CF118BF0121214308438B
:1002B000A3EB0C01CB1D4FEA00614FEA102042BFB7
:1002C000002010BC704700EBC35010440029A4BFAD
:1002D00010BC7047401C490008BF20F0010010BC52
:1002E00070470000064C074D06E0E06840F001034F
:1002F00094E8070098471034AC42F6D3FFF7FAFEB3
:10030000C0130008E013000800BFFEE770472DE9A6
:10031000F04102460025002600200023002400278B
:1003200091F803C00CF00F0591F803C00CF0100C0D
:10033000BCF1000F03D091F802C04CEA050591F81A
:1003400000C0BCF1000F31D0146800202BE04FF04A
:10035000010C0CFA00F3B1F800C00CEA03069E424F
:1003600020D183004FF00F0C0CFA03F7BC4305FAC1
:1003700003FC4CEA040491F803C0BCF1280F06D139
:100380004FF0010C0CFA00FCC2F814C00AE091F81E
:1003900003C0BCF1480F05D14FF0010C0CFA00FC72
:1003A000C2F810C0401C0828D1D31460B1F800C0B6
:1003B000BCF1FF0F34DD546800202EE000F1080C82
:1003C0004FF0010808FA0CF3B1F800C00CEA03067C
:1003D0009E4221D183004FF00F0C0CFA03F7BC436F
:1003E00005FA03FC4CEA040491F803C0BCF1280FA1
:1003F00005D100F1080C08FA0CF8C2F8148091F845
:1004000003C0BCF1480F07D100F1080C4FF0010800
:1004100008FA0CF8C2F81080401C0828CED35460AB
:10042000BDE8F081F0B50A46002300240021002534
:1004300000F00046B6F1004F02D11D4EF16901E017
:100440001B4E7168C0F3034583B200F44016B6F545
:10045000401F08D121F07061154E766826F0706655
:10046000134F7E6012E000F48016B6F5801F06D1AF
:10047000032606FA05F4A14341F0706106E0460D3B
:10048000360103FA06F6B14341F0706122B1460D20
:10049000360103FA06F6314300F00046B6F1004F8C
:1004A00002D1034EF16101E0014E7160F0BD000028
:1004B00000000140416170470161704700BFFEE7E5
:1004C00008B50121082000F0F5F810208DF8030090
:1004D0000002ADF8000003208DF8020069460448D0
:1004E000FFF715FF4FF480510148FFF7E5FF08BD06
:1004F000000C014000BFFEE77047000070B500210E
:1005000000230F22C47804B3154C246804F4E0647B
:10051000C4F5E064210AC1F10403CA40447804FA36
:1005200003F184781440214309010E4C0678A1554B
:10053000047804F01F050124AC4005786D11AD006E
:1005400005F1E025C5F8004109E0047804F01F0535
:100550000124AC40044D0678761145F8264070BD64
:100560000CED00E000E400E080E100E0024901431E
:10057000024A1160704700000000FA050CED00E02F
:10058000704700002DE9F04704460D46154E164F02
:10059000601BFFF74DFE15490860154801681348B8
:1005A0000068FFF70DFE82463946FFF70FFE8046D2
:1005B0000E4801683046FFF709FE82460D49FFF7F5
:1005C00002FE81464146FFF7A9FD0B490860074836
:1005D00000680749086008480068FFF732FEBDE878
:1005E000F0870000000020430000B44250000020CB
:1005F000580000200000E145540000202DE9F84F8C
:1006000004460D461D4E4FF07C57DFF87480601B8A
:10061000FFF70EFE1B490860084601681A4800688B
:10062000FFF77CFD18490860184801681548006804
:10063000FFF7C6FD83464146FFF7C8FD81461248D5
:1006400001683846FFF7C2FD83460E480168304610
:10065000FFF7BCFD59460090FFF760FD8246494612
:10066000FFF75CFD0A490860064800680749086012
:1006700007480068FFF7E5FDBDE8F88F000070430C
:1006800000A08C455C000020640000206800002071
:100690006000002029B1064AD2690243044BDA61A6
:1006A00004E0034AD2698243014BDA6170470000DB
:1006B0000010024029B1064A92690243044B9A6134
:1006C00004E0034A92698243014B9A61704700003B
:1006D0000010024030B500210022002400232D4DDF
:1006E0006D6805F00C0121B1042905D0082923D13A
:1006F00005E0294D056022E0274D05601FE0254DEE
:100700006D6805F47012234D6D6805F48034022580
:1007100005EB92421CB9214D554305600BE01D4D80
:100720006D6805F400351DB11C4D5543056002E0B0
:10073000194D5543056002E0174D056000BF00BF2D
:10074000144D6D6805F0F0010909154D6B5C0568E5
:10075000DD4045600F4D6D6805F4E061090A104DFC
:100760006B5C4568DD4085600A4D6D6805F460513D
:10077000C90A0B4D6B5C4568DD40C560054D6D6871
:1007800005F44041890B074D6B5CC568B5FBF3F57B
:10079000056130BD0010024000127A0000093D00E2
:1007A0000000002010000020704710B500F002F893
:1007B00010BD00000CB50020019000903348006887
:1007C00040F480303149086000BF3048006800F4D0
:1007D000003000900198401C0190009818B90198D1
:1007E000B0F5A06FF1D12948006800F4003010B1D5
:1007F0000120009001E0002000900098012843D1E2
:100800002348006840F0100021490860084600684D
:1008100020F0030008600846006840F0020008600D
:100820001A484068194948600846406848600846C8
:10083000406840F4806048600846406820F47C10BE
:1008400048600846406840F4E81048600846006880
:1008500040F08070086000BF0C48006800F0007035
:100860000028F9D00948406820F003000749486093
:100870000846406840F00200486000BF03484068F6
:1008800000F00C000828F9D10CBD00000010024057
:100890000020024010B50D48008881B24FF0804022
:1008A00000F05FFA0A48008881B24FF0804000F003
:1008B0005AFA0848008881B2074800F056FA0748FB
:1008C000008881B2044800F052FA10BD3C000020BC
:1008D00040000020340000200008004038000020C4
:1008E000042808D14FF0E021096941F004014FF0DC
:1008F000E022116107E04FF0E021096921F00401D5
:100900004FF0E022116170477047000010B51348A6
:10091000006840F00100114908600846406810492D
:1009200008400E494860084600680E4908400B49D7
:1009300008600846006820F4802008600846406887
:1009400020F4FE0048604FF41F008860FFF72DFF81
:100950004FF000600449086010BD00000010024024
:100960000000FFF8FFFFF6FE08ED00E030B589B0AB
:1009700005460C4601210846FFF78CFE012109209F
:10098000FFF798FE01212F48FFF74CFD4FF48060E0
:10099000ADF8200018208DF8230003208DF82200E8
:1009A00008A92948FFF7B3FC4FF40060ADF8200018
:1009B00018208DF8230003208DF8220008A9224872
:1009C000FFF7A5FCADF81850ADF814400020ADF8C5
:1009D0001A00ADF8160005A94FF0804000F0CAF9E2
:1009E0006020ADF804000120ADF806000020ADF84D
:1009F0000A00ADF80C0001A94FF0804000F00CF99E
:100A00006020ADF804000120ADF806000020ADF82C
:100A10000A00ADF80C0001A94FF0804000F056F933
:100A20000821C80600F048F90821C80600F08CF932
:100A30000121880700F0CEF80121880700F0D6F8E0
:100A400009B030BD00031800000C014010B50F487C
:100A5000008800F00100B8B10C48008820F00100C7
:100A60000A49088000210A480068FFF7C7FD0949C4
:100A70000860002108480068FFF784FD0749086006
:100A800000F0DEFAFFF706FF10BD00001004004082
:100A90006C00002048000020700000204C00002066
:100AA0007FB505460C4601210220FFF7F3FDADF8A6
:100AB0000850ADF804400020ADF80A00ADF806007B
:100AC00001A90E4800F056F9012211460B4800F02A
:100AD00099F81D208DF8000000208DF801000220FB
:100AE0008DF8020001208DF803006846FFF706FD2F
:100AF0000121024800F07AF87FBD000000040040A8
:100B000030B589B005460C4601210420FFF7C2FD2F
:100B100001210820FFF7CEFD4FF48070ADF82000D2
:100B200018208DF8230003208DF8220008A92748FB
:100B3000FFF7EDFB4FF40070ADF8200018208DF8A2
:100B4000230003208DF8220008A92048FFF7DFFBCF
:100B5000ADF81850ADF814400020ADF81A00ADF80B
:100B6000160005A91A4800F005F96020ADF8040048
:100B70000120ADF806000020ADF80A00ADF80C0029
:100B800001A9134800F048F86020ADF804000120E6
:100B9000ADF806000020ADF80A00ADF80C0001A980
:100BA0000B4800F093F80821094800F085F8082167
:100BB000074800F0C9F80121054800F00BF80121B1
:100BC000034800F013F809B030BD0000000C0140EC
:100BD0000008004021B1028842F08002028004E057
:100BE00002884FF67F731A400280704721B1028855
:100BF00042F00102028004E002884FF6FE731A40C0
:100C0000028070471AB183890B43838102E0838994
:100C10008B4383817047000070B5002400220023BD
:100C2000058C4FF6FF6635400584028C8388848BE3
:100C30004FF68F752C404FF6FC752C400D882C43D9
:100C40004FF6FF552A400D894FF6FF7606EA052537
:100C50002A434D8806EA05252A43154DA84202D0AD
:100C6000144DA8421DD14FF2FF752A404D894FF611
:100C7000FF7606EA05252A434FF6FF352A408D8880
:100C800006EA05252A434EF6FF752B404DF6FF7503
:100C90002B408D8906EA05152B43CD8906EA0515FB
:100CA0002B4383808483CD888587028470BD0000B8
:100CB000002C0140003401400A460021818B4FF690
:100CC000F7731940114381837047000070B500220B
:100CD00000230024058C4EF6FF7635400584038CF6
:100CE0008488828B48F6FF752A404FF6FF452A40DC
:100CF0000D884FF6FF7606EA05252A434DF6FF7567
:100D00002B400D8906EA05352B434D8806EA05354B
:100D10002B430B4DA84202D00A4DA84208D14BF6F6
:100D2000FF752C408D894FF6FF7606EA85152C431A
:100D300084808283CD88A0F84050038470BD000079
:100D4000002C0140003401400A460021818B4FF203
:100D5000FF7319404FF6FF7303EA0223194381839F
:100D60007047818670470187704781877047A0F878
:100D700040107047002202881D4B98420ED01D4B38
:100D800098420BD0B0F1804F08D01B4B984205D051
:100D90001A4B984202D01A4B984204D14FF68F73E7
:100DA0001A404B881A43174B984207D0164B98426B
:100DB00004D04FF6FF431A40CB881A4302808B8839
:100DC00083850B8803850A4B98420BD0094B9842C8
:100DD00008D00E4B984205D00D4B984202D00D4BD7
:100DE000984201D10B7A0386012383827047000069
:100DF000002C014000340140000400400008004085
:100E0000000C004000100040001400400040014071
:100E1000004401400048014010B540F225511D48F2
:100E200000F04AF810B31B4800F002F9C4B21A48A7
:100E3000008800F40040C8B91748008800F48040DA
:100E400060B10A2C03D000201349088020E012482A
:100E5000008840F400401049088019E00D2C06D1AC
:100E60000D48008840F480400B49088010E00A4893
:100E70000088C0F30D0009490C5407480088401C45
:100E80000549088008460088C72801DD0020088041
:100E900010BD0000003801401C0000207800002038
:100EA00021B1828942F40052828104E082894DF6A8
:100EB000FF731A408281704770B5024600240023F8
:100EC0000025002040F66A16B14200D100BFC1F3F0
:100ED000421501F01F03012606FA03F3012D02D18A
:100EE0009689334006E0022D02D1168A334001E094
:100EF000968A33400C12012606FA04F41688344010
:100F000013B10CB1012000E0002070BDF0B5034624
:100F1000002400260025002040F66A17B94200D1BF
:100F200000BF1846C1F3421401F01F06012707FA5B
:100F300006F5012C01D10C3004E0022C01D1103057
:100F400000E014301AB107682F43076002E0076819
:100F5000AF430760F0BD00002DE9F04786B00546BD
:100F60000E460024A24600BFA1460027B08900B16A
:100F700000BF2F462C8A4CF6FF700440F0880443D3
:100F80002C82AC894EF6F3100440B08831890843B6
:100F9000718908430443AC81AC8A4FF6FF4004409A
:100FA000B0890443AC8201A8FFF794FB1F48874235
:100FB00002D1DDF810A001E0DDF80CA0A88900F452
:100FC000004040B10AEBCA0000EB0A10316849004A
:100FD000B0FBF1F807E00AEBCA0000EB0A10316839
:100FE0008900B0FBF1F86420B8FBF0F0040120099F
:100FF000642101FB1089A88900F4004040B132202F
:1010000000EBC900B0FBF1F000F00700044308E07A
:10101000322000EB09106421B0FBF1F000F00F006A
:1010200004432C8106B0BDE8F08700000038014081
:1010300001468888C0F30800704700BFFEE7000043
:101040002E4800682E49096808442E4908602B483C
:1010500000682B490968401A2B4908602748006836
:101060002749096808442949086024480068244938
:101070000968401A2649086022480068B0F5E15F17
:1010800003DD4FF4E1501F4908601E480068002846
:1010900002DA00201B4908601B480068B0F5E15FD8
:1010A00003DD4FF4E1501849086017480068002834
:1010B00002DA00201449086014480068B0F5E15FC6
:1010C00003DD4FF4E1501049086010480068002823
:1010D00002DA00200C4908600D480068B0F5E15FB5
:1010E00003DD4FF4E1500849086009480068002812
:1010F00002DA002004490860704700004C0000201C
:101100004800002034000020380000203C0000206F
:101110004000002002E008C8121F08C1002AFAD1CE
:1011200070477047002001E001C1121F002AFBD167
:101130007047000010B56FF00400FFF7D1FB0A48BC
:1011400000680A49B0FBF1F00949087008460078C8
:1011500000EB4001C1EBC0104FF6FF7101EAC00087
:101160000449088010BD00002000002000127A0011
:1011700014000020160000200146114A12884A433C
:101180004FF0E0235A6100229A611A46126942F038
:1011900001021A6100BF4FF0E022106900F0010265
:1011A0001AB100F48032002AF5D04FF0E022126923
:1011B00022F001024FF0E0231A6100229A61704789
:1011C0001600002008B501210420FFF773FA012161
:1011D0000820FFF76FFA01210846FFF76BFA042099
:1011E0008DF80300F020ADF8000003208DF8020018
:1011F00069461148FFF78BF804208DF803003B2067
:10120000ADF8000003208DF8020069460B48FFF797
:101210007EF810208DF803006020ADF80000032058
:101220008DF8020069460548FFF771F8012104486E
:10123000FFF7F8F808BD000000080140000C01406D
:101240000002300008B501210420FFF733FA012124
:101250000820FFF72FFA10208DF803009B20ADF82F
:10126000000003208DF8020069460D48FFF74FF893
:1012700010208DF803000720ADF8000003208DF842
:10128000020069460748FFF742F8002141F61F4077
:10129000FFF76CFB002141F61F40FFF731FC08BD52
:1012A00000080140000C0140FFF730FBFFF742FF50
:1012B000FFF706F9FFF7C6FFFFF784FF4FF416505C
:1012C00000F02EF84FF4A060FFF750F9002141F62E
:1012D0001F40FFF74BFB002141F61F40FFF710FCBA
:1012E00041F61F416320FFF7DBFB4FF480510B48B1
:1012F000FFF7E2F84FF47A70FFF73EFF4FF48051AA
:101300000648FFF7D7F84FF47A70FFF735FF04E08F
:101310004FF461618806FFF728FDF9E7000C0140F2
:1013200010B586B00446012144F20400FFF7C2F96B
:101330004FF40070ADF8140003208DF8160018204B
:101340008DF8170005A91C48FEF7E1FF4FF48060F7
:10135000ADF8140004208DF8170005A91648FEF713
:10136000D6FF25208DF8000003208DF801008DF8B0
:10137000020001208DF803006846FFF7BFF80194D2
:101380000020ADF80800ADF80A00ADF80C00ADF88B
:1013900010000C20ADF80E0001A90848FFF7DCFD95
:1013A000012240F225510548FFF7B0FD0121034815
:1013B000FFF776FD06B010BD00080140003801407F
:1013C000E01300080000002078000000141100085D
:1013D0005814000878000020C804000024110008F8
:1013E00000000000010203040102030406070809CB
:1013F00002040608000000000000000000000000D9
:1014000000A24A04000000000000000001020304E2
:1014100006070809000000000000000000000000AE
:1014200000000000000000000000000000000000BC
:1014300000000000000000000000000000000000AC
:10144000000000000000000000000000000000009C
:08145000000000000000000094
:04000005080000ED02
:00000001FF
