:020000040800F2
:10000000780A0020350200083D0200083F0200087F
:1000100041020008430200084502000800000000F9
:10002000000000000000000000000000470200087F
:1000300049020008000000004B0200084D020008C1
:100040004F0200084F0200084F0200084F0200084C
:100050004F0200084F0200084F0200084F0200083C
:100060004F0200084F0200084F0200084F0200082C
:100070004F0200084F0200084F0200084F0200081C
:100080004F0200084F0200084F0200084F0200080C
:100090004F0200084F0200084F0200084F020008FC
:1000A0004F0200084F0200084F0200084F020008EC
:1000B0004F0200084F0200084F0200084F020008DC
:1000C0004F0200084F0200084F0200084F020008CC
:1000D0004F0200084F0200084F0200084F020008BC
:1000E0004F0200084F0200084F02000800F002F81B
:1000F00000F090F80AA090E8000C82448344AAF132
:100100000107DA4501D100F085F8AFF2090EBAE82F
:100110000F0013F0010F18BFFB1A43F0010318473B
:100120003037000050370000103A24BF78C878C13B
:10013000FAD8520724BF30C830C144BF04680C60ED
:10014000704700000023002400250026103A28BF35
:1001500078C1FBD8520728BF30C148BF0B60704739
:100160006E2900F0A381702900F0E582662902F073
:100170005586652902F05286672902F04F8661296B
:1001800002F04E8603681B0A28BF41F080016929EE
:1001900000F05081642900F04D81752900F04A81FA
:1001A0006F2900F07282782900F0B182E92900F00D
:1001B0000D82E42900F00A82F52900F00782EF2978
:1001C00000F06F82F82900F0B0820368DB0928BFD5
:1001D00041F08001632900F0B387732900F0B887EC
:1001E000E32900F0C387F32900F0C8870020704797
:1001F0001FB501F019F804000020002102F0F8FDFD
:10020000401C60600020002102F0DCFDE0601FBDAA
:1002100010B510BD00F0DAFF1146FFF7E9FF02F05C
:1002200079FD01F0B7F803B4FFF7F2FF03BC01F06A
:10023000BBF800000948804709480047FEE7FEE791
:10024000FEE7FEE7FEE7FEE7FEE7FEE7FEE7FEE786
:1002500004480549054A064B70470000212900085B
:10026000ED00000878040020780A002078060020BD
:10027000780600201CB50C46064B7B44694600906E
:10028000204600F02CF904460020694600F03AF9B7
:1002900020461CBD870200004FF0000200B5134647
:1002A00094469646203922BFA0E80C50A0E80C5096
:1002B000B1F12001BFF4F7AF090728BFA0E80C5047
:1002C00048BF0CC05DF804EB890028BF40F8042B40
:1002D00008BF704748BF20F8022B11F0804F18BFAD
:1002E00000F8012B704700004FF0013C50F8042B40
:1002F00051F8043B9A4221D1A2EB0C03934313EA39
:10030000CC1317D150F8042B51F8043B9A4215D165
:10031000A2EB0C03934313EACC130BD150F8042B3C
:1003200051F8043B9A4209D1A2EB0C03934313EA20
:10033000CC13DBD04FF00000704700BFD01A01BAD9
:10034000B1FA81F101F0180122FA01F0CB40C1F1BC
:100350002001DBB2C0B2C01A2CFA01F3D11A9143CA
:1003600011EAC311E6D1704770477047704770B506
:10037000044685690068C10601D5302600E02026C4
:10038000C00707D070BDD4E9012130469047206AEC
:10039000401C20626D1EF6D570BD70B5044685699F
:1003A0000078C00707D170BDD4E901212020904713
:1003B000206A401C20626D1EF6D570BD09684A0592
:1003C00001D540B27047C905FCD500B27047096835
:1003D0004A0501D5C0B27047C905FCD580B2704747
:1003E00070B50C460546012A05D02878800600D550
:1003F000EA69002302E0012305E05B1C934202D27C
:10040000E05C0028F9D1A869E618C01AA861286A3A
:10041000184428622846FFF7AAFF04E0D5E9012125
:1004200014F8010B9047B442F8D32846FFF7B5FF04
:1004300070BD00002DE9F0410646002410687529C2
:10044000314616A510D0FFF7B9FF002802DA404266
:1004500013A507E031688A0701D512A502E0490714
:1004600004D511A5012401E0FFF7B1FF00210A2204
:1004700006F1240709E0B0FBF2FCB0FBF2F302FB4B
:100480001C00303078541846491C0028F3D123460C
:100490002A463046BDE8F04100F061BA0000000095
:1004A0002D0000002B0000002000000011680268F1
:1004B000006A530501D508700AE0D30501D508800C
:1004C00006E0130603D5C217C1E9000200E0086088
:1004D0000120704701694A1C02610878704700B525
:1004E0008FB0CDE901310021059105497944CDE96D
:1004F00003101146684600F029F90FB000BD000056
:10050000E5FFFFFF0A6802F8010B0A607047000070
:100510002DE9FF5F15468A460446DFF8AC80F844B3
:100520000027D8E900103E46CDE9001010E03AF867
:1005300016106A4602A800F025FE411C07D021785B
:10054000890603D5E269391891420DD80744761C13
:100550002078800602D5E069B84205DDAE42E6DBD0
:100560003AF816000028E2D1A069C01BA06120461D
:10057000FFF7FDFED8E90010CDE90010002017E0DC
:100580003AF818106A4602A800F0FCFDB0F1FF3FEF
:1005900081460BD000250DF1080B05E0D4E90121BF
:1005A0001BF8050090476D1C4D45F7D308F101007D
:1005B000B0428046E4DB206A384420622046FFF7E0
:1005C000ECFEBDE8FF9F0000323200002DE9F04153
:1005D0008046D21D22F007020025D2E90002F5294B
:1005E00015A614D0011E72F1000106DA0023D0EB2B
:1005F000030063EB020211A608E0D8F800108B0795
:1006000001D50FA602E0490701D50EA60125114626
:10061000002408F1240704E000F05CF930323A5578
:10062000641C50EA0102F7D12B463246214640466F
:10063000BDE8F04100F093B9000000002D0000007B
:100640002B0000002000000030B4002100F1240441
:1006500008E002F00705D208303542EA4372DB08B1
:100660006554491C52EA0305F3D10468002310A223
:10067000250707D5A40600D421B1C46901230DA222
:10068000641EC46130BC00F06AB910B5044621464E
:100690001068FFF79CFE02462046BDE8104000238C
:1006A000D2E7D21D22F00701D1E90023CCE70000F8
:1006B0000000000030000000F0B40D46018809057C
:1006C00002D5214C7C4402E01F4C7C440E340021B6
:1006D00000F1240608E002F00F071209E75D42EA84
:1006E00003721B097754491C52EA0307F3D10278BD
:1006F0000023120704D5702D06D009B1022311344E
:100700002246F0BC00F02BB901231034F8E770B595
:1007100004460D4621461068FFF759FE0246294659
:100720002046BDE870400023C6E7D21D22F0070333
:10073000D3E90023C0E70368126843F02003036095
:100740000823C3610023B7E7943000002DE9F05F70
:10075000894604464FF0000ADFF874B1FB44C0F844
:1007600020A02046E1688847002874D0252806D0BC
:10077000D4E901219047206A401C2062F1E700265D
:100780005F462046E16888472028054607DB312D73
:1007900005D2781910F8200C08B10643F1E7B0072C
:1007A00001D526F00406C4F81CA00027C4F818A040
:1007B0002A2D09D0284602F035FA38B304EB870811
:1007C000303DC8F8185019E059F8041B204604EBD6
:1007D00087029161E1688847012F054618D1E069D9
:1007E000002820DA26F020061DE0D8F8180000EBDB
:1007F000800005EB40003038C8F818002046E1685A
:100800008847054602F00EFA0028EED1012F0AD0E3
:100810002E2D08D12046E16888477F1C0546022F0F
:1008200046F02006C4DBA069002803DA404246F007
:100830000106A061F00701D026F010066C2D0BD048
:10084000682D09D04C2D39D06A2D35D0742D35D076
:100850007A2D33D016E038E0E1682F4620468847ED
:10086000B842054609D16C2F26D04FF48060E1686C
:10087000064320468847054604E06C2F1AD04FF403
:10088000807006430DB3A5F14100192802D8203528
:1008900046F400664A462946204626604E46FFF743
:1008A0005FFC80B101280BD0F61D26F0070000F197
:1008B000080956E74020E4E78020D8E70020D6E783
:1008C00006F104094DE7284652E7206ABDE8F09F8B
:1008D0002430000030B5B0F10A024FEA900E71F1F9
:1008E00000034EEA817EB0EB0E0061EB91014FEA0E
:1008F000101E4EEA017E10EB0E0041EB11114FEA83
:10090000102E4EEA016E10EB0E0041EB11214FEA62
:10091000104E4EEA014E10EB0E0041EB1141401813
:1009200041F100014FEAD00040EA41704FEAD101A5
:1009300010EB80054FEA810444EA907444EB010413
:100940006D1944EB0404521BA3414FF0000348BF50
:100950000A3200D530BD401C41F1000130BD2DE907
:10096000F0470D4699469246044600F12408016876
:10097000880604D5E06921F01001216000E0012023
:10098000A84201DD471B00E00027A1697A1902EBAC
:100990000900081AA0612078C00602D42046FFF79B
:1009A000E6FC002608E0D4E901211AF80600904789
:1009B000206A401C761C20624E45F4DB2078C0067D
:1009C0000AD52046FFF7D3FC06E0D4E90121302008
:1009D0009047206A401C2062381EA7F10107F4DC12
:1009E00007E0D4E9012118F805009047206A401C6F
:1009F0002062281EA5F10105F3DC2046FFF7CDFC9F
:100A00002078000602D50220BDE8F0870120FBE730
:100A100070472DE9FF4F0C461E464FF0FF378BB055
:100A2000D2E90001DDF860800A908A46C1F30A55D8
:100A300005B93D46002108464FF00000BAF1000F0D
:100A400000F4400005DA00EB80004FF4400101EAB9
:100A500050004FEA9059B9F1010F00DDB9460A98EC
:100A600050EA4A000ED044F61050A5F2FF35454337
:100A70002F14B8F1000F1ED07542291E1EDDC9F1DA
:100A800000021CE0B8F1010F4FF0000001D030214E
:100A900003E0F24305E02154401CB042FBDB30464A
:100AA0000022002121540B99C1F80880C1E90020DF
:100AB0000FB0BDE8F08FBD1B6D1CDEE74A4600DAC3
:100AC000694206A800F0F4FB06AB93E8070003AB0D
:100AD00083E8070050460A9900F06DFC8DE8070096
:100AE000A0F500501F3800900398002D0ADD42F257
:100AF0001F014A460844002303A90390684600F0FA
:100B0000D6FE09E0A0F500504A461F38002303A98D
:100B10000390684600F0E0FE8DE807000004000C3A
:100B200003D04FF0FF30410800E01046B8F1000F4D
:100B300003D00022009215461EE0751E05D4FFF773
:100B4000C9FE303262556D1EF9D5B3460122084305
:100B500002D000227F1C04E02078302801D100223E
:100B60007F1E002A099784D01DE0112D07DAFFF7B8
:100B7000B1FE303262556D1C50EA0102F5D10843D6
:100B800002D00098C8B10EE00021681E05E0235C89
:100B9000625C63542254401E491C8142F7DBAB4621
:100BA000A81B401E0990002004F80B000B98099A1E
:100BB000C0F80880C0E9002B7AE711264FF0000842
:100BC00057E72DE9F04F88460446D21D22F0070171
:100BD00091B0D1E90001CDE90A0102F00FF8024617
:100BE0000B98C00F01D02D2007E02068810701D5A8
:100BF0002B2002E0202101EAC000032A099001D045
:100C0000072A05DB03464146204600F011FB0BE1B5
:100C10002078800601D5E06900E00620B8F1650F74
:100C2000814606D0B8F1660F18D0B8F1670F70D1C1
:100C300031E00020B9F1110F009001DB112301E038
:100C400009F101030AAA01A90CA8FFF7E2FEDDE9F8
:100C50000C70002609F10105834647E001204B4650
:100C600000904FF000470AAA01A90CA8FFF7D1FE97
:100C7000DDE90DB00C995D46002610B909F10100BF
:100C80000D18B9EB050003D4C0F1FF3609F10105D9
:100C9000A5EB09002BE0B9F1010F01DA4FF00109D2
:100CA0000020B9F1110F0090484601DD112300E04A
:100CB00003460AAA01A90CA8FFF7ABFEDDE90C70F8
:100CC0004D4600268346207800070AD4AB4500DA5B
:100CD0005D4601A8012D04DD411911F8011C3029E0
:100CE00007D04F4502DA17F1040F04DA01208246DB
:100CF0000FE06D1EEEE7002F02DCED1B3E4403E02B
:100D0000781CA84200DD7D1CB81B00F1010A4FF0E1
:100D100000472078000703D4AA4501DB4FF0FF3AD3
:100D20000021B7F1004F0DF143088DF8431024D096
:100D300002202B23002F01DA7F422D230A21021EDD
:100D4000A0F1010000DC5FB197FBF1FC97FBF1F231
:100D500001FB1C7C17460CF1300C08F801CDEEE7C6
:100D6000A8F1010003702188090501D5452100E0A3
:100D70006521A0F1010800F8011C09980FA9A1EB59
:100D80000807FF1D00B10120411901EBEA70A169BC
:100D90003844081A401EA0612078C00602D42046BC
:100DA000FFF7E5FA099828B1D4E901219047206AB4
:100DB000401C20622078C00622D52046FFF7D7FAD3
:100DC0001EE0002E04DBB34502DD01A8805D00E0DB
:100DD0003020D4E901219047206A401C2062761C13
:100DE000AAF101005FEA000A0AD100F01DFAC0680A
:100DF0000168405CD4E901219047206A401C2062D0
:100E0000281EA5F10105DCDC07E0D4E9012118F872
:100E1000010B9047206A401C2062381EA7F1010791
:100E2000F3DC2046FFF7B9FA032011B041E60000D9
:100E30002DE9F04F04460D46D21D22F0070089B07F
:100E4000D0E900974846394601F0D8FE0246F80F2F
:100E500001D02D2307E02068810701D52B2302E074
:100E6000202101EAC0038DF820300BB1012000E001
:100E70000020032A824601D0072A04DB29462046A7
:100E800000F0D6F93FE12078800601D40D2500E07E
:100E9000E569C7F30A560D2D49DA00214FEA175BC1
:100EA00008464FF00000002F00F4400007DA00EB86
:100EB00080004FF4400100EBD07001EA6000811522
:100EC000012901DD4FF0FF3100224FEA850CBCF112
:100ED000180F06D31346ACF118004FF08052C240F1
:100EE00003E04FF4801323FA0CF30CF10C0CBCF16B
:100EF000200F04D3ACF1200C09FA0CF001E007FA42
:100F00000CF000294FF0004801DD18B90FE00ED1B8
:100F100040450CD319EB02095F4121B9404502D18C
:100F20009F4329EA0209BBEB175F00D0761C20889B
:100F3000000502D57B48784402E07A4878441938A5
:100F400008AA302302F80A30037C0AF10101002EBE
:100F50000AF1020A53546A4602DC4FF0300101E004
:100F60004FF031014FF001088DF8001002D0A6F2C9
:100F7000FF3603E059EA470100D06B4E002D02DC3A
:100F80002178090704D54FF002082E218DF80110B1
:100F9000C44600210BE0C7F303433F01C35C491C77
:100FA0006D1E02F80830052908F1010801DA002D4C
:100FB000F1DC00210CE000EB1973491C1B786D1E5D
:100FC000082902F808304FEA091908F1010801DA86
:100FD000002DF0DC21688B0602D516E0A8F101088F
:100FE000E04505DD02EB080313F8013C302BF5D09A
:100FF000B8F1000F09DD02EB080313F8013C2E2BBA
:1010000003D1090701D4A8F10108002D05DD3E2117
:1010100002F808106D1E08F10108407C002E02F84D
:10102000080008F1010804DA2D20764202F80800D1
:1010300002E02B2002F808000A214FF47A70864261
:1010400008F101080BDB96FBF0F3303302F80830AF
:1010500096FBF0F308F1010800FB136601E0642E33
:101060000CDB642096FBF0F3303302F8083096FB7B
:10107000F0F308F1010800FB136601E00A2E06DB1D
:1010800096FBF1F0303002F8080008F1010896FBF9
:10109000F1F001FB1060303002F80800A16908F19E
:1010A000010808EB050202EB0A00081AA06120788B
:1010B000C00602D42046FFF75AF9216A08AE01EBB8
:1010C0000A00206204E0D4E9012116F8010B9047E0
:1010D000BAF1010AF7D22078C00602D52046FFF700
:1010E00046F96E4609E016F8010B3E280FD0D4E908
:1010F00001219047206A401C2062B8F10108F2D219
:101100002046FFF74AF909B00320BDE8F08F206AB6
:101110002844206203E0D4E90121302090476D1E6D
:10112000EBD3F8E76E28000002FCFFFF10B543691F
:1011300013B1AFF3008001E0FFF752F9012010BDB9
:10114000127800F124010A7000224A700122EDE7B2
:1011500011684FF0FF32E9E710B5436913B1AFF3FF
:10116000008001E0FFF7D4F9012010BD128800F1E2
:10117000240182840022C2840122EDE711684FF02D
:10118000FF32E9E770B516460C46054600F044F814
:10119000036893F80101012806D0FF2C0FD8185DD1
:1011A00068B101202C7070BDD3F80701324621468A
:1011B00003F2071303442846BDE8704018474FF078
:1011C000FF3070BD00487047140400207546FFF7DB
:1011D000F9FFAE4605006946534620F007008546F4
:1011E00018B020B5FFF734F8BDE820404FF00006F6
:1011F0004FF000074FF000084FF0000B21F00701FF
:10120000AC46ACE8C009ACE8C009ACE8C009ACE841
:10121000C0098D467047000010B500F005F8001DAC
:1012200010BD00BFCD1B00000048704734040020F3
:101230002DE9F0411F46044603260168072A01F400
:10124000006004DB08B116A505E016A503E008B1AF
:1012500015A500E015A521F010002060A069C01EB2
:10126000A0610FB1401EA0612046FFF780F84FB18A
:10127000D4E9012138469047206A401C2062C01CF6
:10128000206206E0206AFAE7D4E9012115F8010B93
:101290009047761EF8D22046FFF77FF8BDE8F08130
:1012A0004E414E006E616E00494E4600696E66000A
:1012B0002DE9F047814616468AB0354878440DC876
:1012C0008DE80D0032487844801C03AC0DC884E8DA
:1012D0000D0041F69B300844372190FBF1F290FB62
:1012E000F1F5A5F1800501FB12041B3C02D5644217
:1012F000012000E00020DFF898A080460027FA4493
:10130000AAF1BE0A0EE0E0070AD03246684607EBB3
:10131000470101230AEB810100F0DEFA8DE80700A6
:1013200064107F1C002CEED1194F7F44AE3F19E0B2
:10133000E80715D007EB04100DF1180A90E80E002D
:101340008AE80E00C068F04201D198190890324630
:10135000012306A903A800F0BFFA03AB83E8070046
:101360006D10641C002DE3D14FF001033246694635
:10137000B8F1000F03A802D000F099FA01E000F0E4
:10138000ABFAC9E90001C9F808200AB0BDE8F08746
:101390007825000010B50446AFF300802046BDE874
:1013A0001040FEF740BF000001491820ABBEFEE729
:1013B0002600020070475FEA400C08BF91F0000F62
:1013C0004FEA8C234FEAC12243EA51514FEA1C50A5
:1013D00018BF00F5F0404FEA300018BF41F000415F
:1013E0005FEA6C5C00F02980BCF1FF3F08BF40F071
:1013F00080407047130C06BF12044FF0100C4FF0E2
:10140000000C130E04BF12020CF1080C130F04BFE2
:1014100012010CF1040C930F04BF92000CF1020CAA
:10142000D30F04BF52000CF1010C11464FF0000223
:10143000A0F11F00A0EB0C00704711F0004F08BF97
:10144000704731F000413FF4D5AF0B0C06BF0904E3
:101450004FF0100C4FF0000C0B0E04BF09020CF102
:10146000080C0B0F04BF09010CF1040C8B0F04BF17
:1014700089000CF1020CCB0F04BF49000CF1010CE8
:10148000CCF12003A0EB0C0022FA03F302FA0CF2D9
:1014900041EA030100F10100704720F07F4C80EA2F
:1014A000030023F07F47ACEB070303F57C5300F008
:1014B000004003F1FF032DE980494FEA154B09B4C1
:1014C0004FEA144325EA0B4E24EA03480FF20426A0
:1014D00006EB132749083E785FEA320203FB0667F2
:1014E000C7F5000707FB06F64FEA54374FEAD64622
:1014F00006F1020607FB066CCCF1005C4FEA1C47C4
:101500002CEA074C07FB06F40CFB06F504EB15462A
:101510004FEA961634BF00204FF000404FEAD13713
:1015200006FB07FC4FEA1C4C0CFB0BF7D21B03FB22
:101530000CF761EB07010CFB0EF7B0EB074072EB09
:1015400017420CFB08F734BFA2EB0742B2EB07428D
:1015500061EB17414FEA0C444FEA910706FB07FC89
:101560004FEA1C4C0CFB0BF7B0EBC74072EB573249
:1015700003FB0CF734BFA2EBC742B2EBC74261EBEF
:1015800057310CFB0EF7B0EBC70072EB57720CFB38
:1015900008F734BFA2EBC702B2EBC70261EB577189
:1015A000039F4FEA816141EA921104EBCC044FEAB8
:1015B000D1374FEA826206FB07FC42EA90124FEAFB
:1015C00080604FEA1C4C0CFB0BF7D21B03FB0CF7A3
:1015D00061EB07010CFB0EF7B0EB074072EB174213
:1015E0000CFB08F734BFA2EB0742B2EB074261EBFA
:1015F00017414FEA8C554FEA910704EB9C2406FBF8
:1016000007FC4FEA1C4C0CFB0BF7B0EBC74072EB2E
:10161000573203FB0CF734BFA2EBC742B2EBC74211
:1016200061EB57310CFB0EF7B0EBC70072EB577252
:101630000CFB08F734BFA2EBC702B2EBC70261EBA9
:10164000577115EB4C254FEA816141EA92114FEA3F
:1016500082624FEAD13742EA901206FB07FC44F15E
:1016600000044FEA80604FEA1C4C0CFB0BF7D21BC6
:1016700003FB0CF761EB07010CFB0EF7B0EB074027
:1016800072EB17420CFB08F734BFA2EB0742B2EB38
:10169000074261EB174115EB1C154FEA813141EA16
:1016A00092414FEA823242EA90424FEA80304FEA5A
:1016B0000C7644F1000448EA03434EEA0B484FF02D
:1016C000000EB2EB080C71EB030724BF62463946EB
:1016D0004EEB0E0E4FF0000B0018524149414BEB00
:1016E0000B0BB2EB080C71EB03077BF1000B24BF73
:1016F000624639464EEB0E0E4FF0000B0018524179
:1017000049414BEB0B0BB2EB080C71EB03077BF180
:10171000000B24BF624639464EEB0E0E51EA02071B
:1017200018BF46F0010616EB0E7655F1000254F193
:10173000000103D5BDE88901BDE80088BDE8890145
:10174000BDE80048B619524141EB0101A3F1010384
:10175000704780807F7E7D7C7B7A7978777676751E
:101760007473727171706F6E6E6D6C6C6B6A6A6996
:101770006868676666656464636362616160605F30
:101780005F5E5E5D5D5C5C5B5B5A5A5959585857A9
:101790005756565555555454535352525251515011
:1017A00050504F4F4F4E4E4D4D4D4C4C4C4B4B4B64
:1017B0004A4A4A49494948484847474747464646AA
:1017C00045454544444444434343434242424241E5
:1017D0004141002B9C4630D477002BD01CB54FEAFA
:1017E000370703B44FF010004FF01001BAF1000FAB
:1017F00006D0BCF1000FDCBF40F0080040F008014B
:101800004FF000000FBCBDE810400BF1010BBBF125
:10181000010F08BF5FEA170722BF12F1010211F1A1
:1018200001014FF0004143F1000300F0004043EAA2
:1018300000007047F9D35708D0E746EA064613F18F
:10184000400F4FEA16461FDD13F1200FDFBF16438E
:101850000A46002120335B42BED0C3F1200746EA8E
:10186000064602FA07F74FEA164646EA0706C3F1AC
:10187000200722FA03F201FA07F721FA03F14FF0E9
:10188000000342EA0702A7E746EA020646EA0646DE
:101890004FEA164646EA0106BCBF46EA0646360C43
:1018A0004FF000034FF000024FF0000194E72DE9E4
:1018B000804C9A46934670B491E8380007C831EAE4
:1018C000400C48BF34EA430C03D5FFF7E6FDFFF7B1
:1018D00080FFF0BCBDE8008C2DE9804C9A46934611
:1018E00070B491E8380007C810F0804F08BF13F0BB
:1018F000804F03D100F005F8FFF76BFFF0BCBDE8A7
:10190000008C20F07F4780EA030023F07F4C07EB38
:101910000C03A3F57C5300F00040A3F1FE0392F00A
:10192000000F00F0B38095F0000F00F077802DE9F4
:1019300001494FEA11404FEA144621EA004800FBF2
:1019400006FC24EA064708FB06F607FB08F800FB3E
:1019500007F718EB06484CEB164C4FEA124B18EB06
:1019600007484FEA15464CEB174022EA0B4E0BFB9B
:1019700006FC25EA06470EFB06F607FB0EFE0BFBF0
:1019800007F71EEB064E4CEB164C4FF000061EEB15
:10199000074E4CEB174B18EB0B0840F1000018EB0F
:1019A0000E0B58EB000840F100008F1A4FF00001B9
:1019B0003CBFC943661B14BFB5EB040C00213CBF00
:1019C000C943F61B4FEA17444EEA8E0E27EA044538
:1019D0004FEA1C4704FB07622CEA074C05FB07F79C
:1019E0000CFB05F604FB0CFC16EB074642EB17421A
:1019F00016EB0C4642EB1C421BEB060658EB0202B0
:101A0000414146EA9E0601D5BDE80189B619524119
:101A100041EB0101A3F10103BDE801894FEA14453F
:101A20004FEA114724EA054621EA074C05FB07F473
:101A300006FB07F70CFB06F105FB0CFC11EB07415D
:101A400044EB17444FEA124711EB0C4144EB1C44A2
:101A500022EA074C05FB07F206FB07F70CFB06F62C
:101A600005FB0CFC16EB074642EB174216EB0C4647
:101A700042EB1C456A1854F1000148BF7047B61983
:101A8000524141EB0101A3F10103704795F0000FB2
:101A900037D04FEA11424FEA144721EA024624EABE
:101AA000074C02FB07F106FB07F70CFB06F402FBF1
:101AB0000CFC14EB074441EB17414FEA154714EBBC
:101AC0000C4441EB1C4125EA074C02FB07F506FBE1
:101AD00007F70CFB06F602FB0CFC16EB074645EB82
:101AE000174516EB0C4645EB1C42121951F100014B
:101AF00048BF7047B619524141EB0101A3F1010300
:101B000070474FEA14454FEA114724EA054621EA97
:101B1000074C05FB07F106FB07F70CFB06F24FF03D
:101B2000000605FB0CFC12EB074241EB174112EBE0
:101B30000C4251EB1C4148BF7047921841EB010128
:101B4000A3F10103704700B502464FF47A7302E037
:101B5000184600F004F8521E501CF9D100BD00EBED
:101B6000C000C1004FF0E0204161002181610521EA
:101B700001610169C903FCD50421016170472DE9A8
:101B8000F0410022CC7804F00F03E40601D58C78F4
:101B900023430C784FF00F0714F0FF0F4FF0010CA8
:101BA0001CD005680CFA02F40E882640A64211D11A
:101BB000960007FA06F825EA080503FA06F848EA47
:101BC0000505CE78282E02D0482E02D002E04461CE
:101BD00000E00461521C082AE4D305600A88FF2A49
:101BE0001ED94568002202F108060CFA06F40E8898
:101BF0002640A64210D1960007FA06F825EA080505
:101C000003FA06F848EA0505CE78282E00D144618B
:101C1000CE78482E00D10461521C082AE3D34560D7
:101C2000BDE8F0810246002092680A4200D00120FF
:101C300070474161704701617047002A01D001611E
:101C400070474161704700007CB50121042000F01D
:101C5000FFFD0121082000F0FBFD04248DF8074062
:101C60004FF47040ADF8040003258DF8065001A92B
:101C70000748FFF784FF8DF803404FF47060ADF81C
:101C800000008DF8025069460248FFF778FF7CBDDE
:101C9000000C01400008014070B588B0FFF7D4FF88
:101CA000002420216846FEF7F7FAFF4D4FF48051DB
:101CB0002846FFF7B7FF009069142846FFF7B2FFE8
:101CC00001904FF480412846FFF7ACFF02904FF49B
:101CD00000412846FFF7A6FF0390A915F34D2846BB
:101CE000FFF7A0FF049069152846FFF79BFF0590BA
:101CF00029152846FFF796FF0690E9142846FFF7B6
:101D000091FF0790EA4D00994FF4C870A1B901996D
:101D1000012911D1029901290ED1039901290BD171
:101D20000499012908D10599012905D106990129AC
:101D300002D10799012902D0009921B117E028604A
:101D400000F0AEFCF8E1019989B9029901290ED1A0
:101D5000039901290BD10499012908D10599012979
:101D600005D10699012902D10799012904D00098CB
:101D70004FF4967220B116E0286000F091FCDBE190
:101D8000019880B9029870B9039801280BD1049882
:101D9000012808D10598012805D10698012802D10B
:101DA0000798012803D00098C82658B11CE00224E7
:101DB000164630466A6000F09DFC3046AE6000F08A
:101DC00089FCB9E1019878B9029868B9039858B9C3
:101DD0000498012808D10598012805D10698012802
:101DE00002D10798012802D0009850B11AE00224CD
:101DF00010466A6000F07EFC3046AE6000F06AFC7F
:101E00009AE1019870B9029860B9039850B90498A2
:101E100040B90598012805D10698012802D10798F4
:101E2000012803D0009801280AD01BE01624304670
:101E30006E6000F05FFC3046AE6000F04BFC7BE172
:101E4000019878B9029868B9039858B9049801289C
:101E500008D10598012805D10698012802D10798D4
:101E6000012804D00099FA2001290BD01BE0162488
:101E7000164630466A6000F03DFC3046AE6000F029
:101E800029FC59E1019971B9029961B9039951B9D4
:101E9000049941B90599012905D10699012902D171
:101EA0000799012903D0009901290AD019E0DE24FD
:101EB0000646686000F01EFC3046AE6000F00AFC8A
:101EC0003AE1019969B9029959B9039949B9049953
:101ED00039B9059929B90699012902D1079901292A
:101EE00005D0009B40F6AE01012B0AD01BE0DE249A
:101EF0000646686000F0FEFB3046AE6000F0EAFB8C
:101F00001AE1019B012B0ED1029B63B9039B53B9CC
:101F1000049B43B9059B012B05D1069B012B02D1E4
:101F2000079B012B03D0009B012B0AD01AE00C4623
:101F30000646686000F0DEFB3046AE6000F0CAFB8B
:101F4000FAE0019B012B0DD1029B5BB9039B4BB9BE
:101F5000049B3BB9059B2BB9069B012B02D1079B28
:101F6000012B03D0009B012B0AD01AE00C46064639
:101F7000686000F0BFFB3046AE6000F0ABFBDBE01A
:101F8000019B012B0DD1029B012B0AD1039B43B96D
:101F9000049B33B9059B23B9069B13B9079B012BFF
:101FA00003D0009B012B09D01AE00C46686000F0BA
:101FB000A1FB3046AE6000F08DFBBDE0019B012B24
:101FC0000ED1029B012B0BD1039B012B08D1049B4B
:101FD00033B9059B23B9069B13B9079B012B03D08B
:101FE000009B012B0AD01AE00C460646686000F000
:101FF00081FB3046AE6000F06DFB9DE0019B012B44
:102000000DD1029B012B0AD1039B012B07D1049B0D
:102010002BB9059B1BB9069B0BB9079B1BB1009BFA
:10202000012B0AD01BE00C460646686000F062FBFC
:102030003046AE6000F04EFB7EE0019B012B0ED1DE
:10204000029B012B0BD1039B012B08D1049B012B7D
:1020500005D1059B1BB9069B0BB9079B1BB1009BC8
:10206000012B0AD01CE00C460646686000F042FBDB
:102070003046AE6000F02EFB5EE0019B012B0FD1DD
:10208000029B012B0CD1039B012B09D1049B012B3B
:1020900006D1059B012B03D1069B0BB9079B4BB1C6
:1020A000009B012B10D01FE0000C014000080140F4
:1020B000000000200C460646686000F01BFB30461E
:1020C000AE6000F007FB37E0019B012B0CD1029BB7
:1020D00053B9039B43B9049B33B9059B23B9069BB2
:1020E00013B9079B012B03D0009801280AD023E0E5
:1020F0000C460646686000F0FDFA3046AE6000F01F
:10210000E9FA19E00198012816D10298012813D1A3
:102110000398012810D1049801280DD105980128B1
:102120000AD10698012807D10798012804D10A246A
:1021300010462A6000F0B4FA08B0204670BD0000D6
:102140000249084302490860704700000000FA0590
:102150000CED00E010B50021074C0022002004EB3C
:10216000C1131A54401CC0B28028FAD3491CC9B20A
:102170000829F3D310BD0000140000202DE9F04120
:10218000CF1823E0044686181CE07F2C18D80029BD
:1021900016DB3F2914DCCB1701EB5373DD104FEA3C
:1021A000C51C0C4D23F007036544A1EB030815F88B
:1021B00004C0012303FA08F32CEA030C05F804C059
:1021C000641C24B2A642E0DC491C09B28F42D9DC6F
:1021D000BDE8F0811400002038B500214FF47A7278
:1021E0000020401C9042FCD3491C9142F8D30121AD
:1021F000082000F02DFB14208DF8030003208DF83B
:1022000002004FF48070ADF80000094C694620468A
:10221000FFF7B5FC6115ADF8001069462046FFF7E1
:10222000AEFC012000F002FA012000F007FA38BDF0
:10223000000C014070B505460024802626FA04F003
:10224000284000D0012000F0F9F9012000F0EEF95B
:10225000002000F0EBF9641CE4B2082CEED301205E
:1022600000F0E4F9BDE87040002000F0DFB910B5DF
:10227000012000F0E3F9012000F0D8F9002000F07F
:10228000DDF9BDE81040002000F0D0B910B5002005
:1022900000F0D4F9012000F0C9F9BDE81040012098
:1022A00000F0CCB910B5FFF797FFAE2000F0CEF9E3
:1022B000D52000F0CBF9802000F0C8F9A82000F06C
:1022C000C5F93F2000F0C2F9D32000F0BFF900208B
:1022D00000F0BCF9402000F0B9F9A12000F0B6F9F7
:1022E000C82000F0B3F9DA2000F0B0F9122000F0B5
:1022F000ADF9812000F0AAF9CF2000F0A7F9D9208C
:1023000000F0A4F9F12000F0A1F9DB2000F09EF923
:10231000302000F09BF9A42000F098F9A62000F0EE
:1023200095F98D2000F092F9142000F08FF9AF207C
:1023300000F08CF9FFF70EFFBDE8104000F062B925
:102340000FB470B5C0B005460E46144648AA68469C
:102350004799FDF78FFF23466A463146284600F02D
:102360008DF840B070BC5DF814FB10B50C4640F021
:10237000B00000F06BF9102040EA141000F066F98C
:1023800004F00F00BDE8104000F060B908B5203A35
:10239000082B0CD0062B09D1094B02EB420203EBB0
:1023A000420200920823062200F00EF808BD054BF9
:1023B00003EB021200921023082200F005F808BD7A
:1023C00014340008242E00082DE9FF4F0F46DDF8D5
:1023D000349090461D4600242B46424639460098CC
:1023E000FFF7CCFE6D1EE81705EB50700121DFF8FA
:1023F00088C001EBE00A3BE0002035E000990D18B1
:102400007F2D2FD8F91707EB5171CA1016B221F0A2
:1024100007017B1A002F03DA761E36B208331BB28F
:10242000311907290DD804FB08FB09EB000E0CEB52
:10243000C1121BF80EB0565D0BFA03FB46EA0B0601
:102440005655491C07290DD804FB08F609EB000B6B
:102450000CEBC11116F80B604A5DC3F10803DE40B6
:1024600032434A55401CC0B24045C7D3641CE4B255
:10247000A245C1DCBDE8FF8F140000202DE9FF4F0D
:1024800083B080461446994600250026AA46ADE052
:10249000010609D4012029466D1C615CADB28DF89E
:1024A00004108DF805A055E00621B1EB501F10D1A6
:1024B0000220691C625D89B28DF80420625C002AEA
:1024C00076D04A1C615C95B28DF805108DF806A097
:1024D00040E00E21B1EB101F18D10320691C625D92
:1024E00089B28DF80420625C002A61D04A1C615CCC
:1024F00092B28DF80510A15C00297BD0511C8DB2E1
:10250000A15C8DF806108DF807A023E01E21B1EB29
:10251000D00F23D10420691C625D89B28DF804209C
:10252000625C002A66D04A1C615C92B28DF805108C
:10253000A15C00295ED0511CA25C89B28DF80620F6
:10254000625C002A56D04A1C615C95B28DF8071077
:102550008DF808A0012804D0002716E06D1CADB24C
:1025600044E008EB06009DF8042000B24B460499B5
:10257000FFF70CFF06EB090086B237E0584601A9C9
:10258000FDF7B2FE68B17F1CBFB207EB870000EB1E
:1025900047111A480844834619A1FDF7A5FE0028F3
:1025A000ECD1B9F1080F04D0B9F1060F1ED113E038
:1025B00020E007EB870000EB471110481023084488
:1025C000401D009008EB060000B21A460499FFF780
:1025D000FBFE1036B6B209E008EB060000B2062397
:1025E0003F220499FFF7D2FEB61DB6B2605D002807
:1025F0007FF44EAF07B0BDE8F08F00004E36000804
:102600000000000070B50024074D00212046FFF7B0
:10261000ACFE05EBC410802100F029F8641CE4B284
:10262000082CF2D370BD00001400002002464FF4C5
:1026300080710148FFF701BB000C014002464FF4D6
:1026400000710148FFF7F9BA000C014010B50446CB
:10265000FFF70DFE7820FFF7EDFD0020FFF7EAFD04
:102660002046FFF7E7FDBDE81040FFF70FBE70B54D
:1026700005460E46FFF7FBFD7820FFF7DBFD402007
:10268000FFF7D8FD002404E0285DFFF7D3FD641CAC
:10269000E4B2B442F8D3BDE87040FFF7F7BD0000E4
:1026A00070B50546094C2946204600F02FFA294608
:1026B000204600F02DFA064C2946204600F028FA64
:1026C00029462046BDE8704000F020BA00080040CE
:1026D0000004004010B504462146044800F016FAF4
:1026E0002146BDE81040024800F010BA0008004042
:1026F0000004004010B504462146044800F008FAE2
:102700002146BDE81040024800F002BA000800402F
:102710000004004070B588B00121042000F08AF860
:102720000121082000F094F80121022000F082F835
:102730000121042000F08CF818208DF81F00C02023
:10274000ADF81C0003208DF81E0007A93548FFF7DF
:1027500016FA07A93448FFF712FA344D284600F05C
:102760002DF9334E304600F029F90024ADF816401B
:10277000ADF8124040F2E730ADF814004720ADF854
:1027800010008DF8184004A9284600F0C3F904A9E8
:10279000304600F0BFF9684600F0AEF96020ADF8B1
:1027A0000000ADF808400120ADF80200ADF8064089
:1027B0006946284600F008F96946284600F04EF9B7
:1027C0006946304600F000F96946304600F046F9A7
:1027D0000121304600F0CCF80121284600F0C8F86D
:1027E0000121284600F0DCF80121304600F0D8F83D
:1027F0000121284600F02CF90121304600F028F98B
:102800000121284600F06EF90121304600F06AF9F6
:102810000121284600F0B8F80121304600F0B4F854
:1028200008B070BD000C01400008014000040040E9
:1028300000080040054A002903D0D1690143D16155
:102840007047D1698143D161704700000010024098
:10285000054A002903D0916901439161704791694C
:10286000814391617047000000100240AFF3008087
:102870000CB50022019200922748016841F4803192
:1028800001604FF4A063016801F4003100910199E7
:10289000491C0191009911B901999942F3D101683C
:1028A000890302D50121009100E0009200990129DD
:1028B00030D11A490A6842F010020A600A6822F010
:1028C00003020A600A6842F002020A60416841603D
:1028D00041684160416841F480614160416821F490
:1028E0007C114160416841F4E8114160016841F0A8
:1028F0008071016001688901FCD5416821F0030104
:102900004160416841F0020141604168C1F38101C9
:102910000229FAD10CBD0000001002400020024044
:1029200010B50F48016841F00101016041680D4A8E
:102930001140416001680C4A11400160016821F4B6
:1029400080210160416821F4FE0141604FF41F01C4
:102950008160FFF78BFF05494FF00060086010BDF4
:10296000001002400000FFF8FFFFF6FE08ED00E057
:10297000002904D0018841F080010180704701885E
:1029800021F0800101807047002904D0018841F0C6
:10299000010101807047018821F001010180704729
:1029A000002905D030F8441F41F4004101807047F0
:1029B00030F8441FC1F30E0101807047018921F0F6
:1029C000070101817047000030B5028C22F001023E
:1029D0000284028C8388048B24F0700424F00305A5
:1029E0000C882C4322F002020D8915434A882A43A1
:1029F000124DA8420BD0124DA84208D0114DA8424A
:102A000005D0114DA84202D0104DA8420FD122F09E
:102A100008054A892A4322F004058A882A4323F4B8
:102A2000807323F400738D891D43CB892B438380EE
:102A30000483C9888186028430BD0000002C0140D7
:102A40000034014000400140004401400048014082
:102A5000028B22F008020A430283704770B5028C91
:102A600022F010020284028C8388048B24F4E04458
:102A700024F440760D884FF6FF7404EA05253543AB
:102A800022F020020E8904EA061616434A8804EA58
:102A900002123243114EB04202D0114EB04217D151
:102AA00022F080024E8904EA0616164326F04006FC
:102AB0008A8804EA0212324323F4806323F4006319
:102AC0008E8904EA86061E43CB8904EA83033343D6
:102AD00083800583C9880187028470BD002C014072
:102AE00000340140028B22F400624FF6FF7303EAC8
:102AF00001211143018370470021018041808180C1
:102B0000C180018141818181C18170478186704787
:102B10000187704730B502881B4C1C4DA0420DD078
:102B2000A8420BD0B0F1804F08D0194B984205D085
:102B3000184B984202D0184B984203D122F07003F0
:102B40004A881A43154B984206D0154B984203D039
:102B500022F44073CA881A4302808A8882850A88D0
:102B60000285A0420AD0A84208D00E4A904205D061
:102B70000D4A904202D00D4A904201D1097A018655
:102B80000121818230BD0000002C01400034014051
:102B90000004004000080040000C0040001000400D
:102BA0000014004000400140004401400048014042
:102BB00038B501210820FFF74BFE10248DF80340A3
:102BC00040F60640ADF8000003258DF80250694636
:102BD0000848FEF7D4FF8DF803403920ADF8000017
:102BE0008DF8025069460448FEF7C9FFFFF792FDD1
:102BF00038BD0000000C014000080140490050EAC7
:102C0000C12018BF04204A0D18BF40F0010040F257
:102C1000FF72B2EB515F08BF40F00200012808BF0D
:102C20000520704730380A2801D201207047002063
:102C30007047000038B500F051F804464FF4FA70C0
:102C4000FEF781FF00F04AF80849844202D0C868C4
:102C5000401CC860C868009005A30622142100200B
:102C6000FFF76EFBFFF7CEFC002038BD0000002010
:102C7000666C61673D25640010B5154C4FF400612A
:102C80002046FEF7D6FF21152046FEF7D4FF04218B
:102C90002046FEF7CEFF02212046FEF7CCFF0D4C6A
:102CA00010212046FEF7C7FF08212046FEF7C1FF8E
:102CB00020212046FEF7BFFF01212046FEF7B9FF85
:102CC00005480088BDE8104080B2FFF7E9BC00006D
:102CD000000C0140000801400000002070B50B4EC0
:102CE0004FF4005529463046FEF79CFF084C30B1A2
:102CF00029463046FEF796FF012803D004E0002065
:102D0000206101E001202061206970BD000C0140BC
:102D10000000002008B54FF44070FFF711FAFFF7EC
:102D2000F9FCFEF791FFFFF743FFFFF7BBFA012124
:102D30000820FFF78DFD10248DF803400120ADF829
:102D4000000003258DF80250194E69463046FEF703
:102D500016FF01210420FFF77BFD8DF8034064027C
:102D6000ADF800408DF80250124D69462846FEF736
:102D700006FF01213046FEF75EFF21462846FEF79A
:102D80005AFF0D4CFEF788FF18B1FEF785FF0A28A1
:102D900001D1206820B100F011F8FFF74BFFF1E7F7
:102DA00001213046FEF747FFFFF766FFF5E7000019
:102DB000000C0140000801400C0000200020FFF73B
:102DC0006FBC000010B500290AD00878002807D091
:102DD00005487844FDF788FA002801D0002010BD8E
:102DE0000248784410BD00009E0A0000960A0000C8
:102DF00010B500290AD00878002807D00548784483
:102E0000FDF772FA002801D0002010BD0248784476
:102E100010BD00008E0A0000860A0000FDF7D1BE3A
:102E2000FEF706B8000000000000000000000000EF
:102E300000000000000000F8000000000000003367
:102E40003000000000160E00160E0000000000000A
:102E50000000000040C07840C0784000043F0404F7
:102E60003F040400007088FC08300000001820FFB8
:102E7000211E0000F008F000E018000000211C03F3
:102E80001E211E0000F00888700000001E2123246F
:102E900019272110000000160E000000000000009D
:102EA00000000000000000E018040200000000071D
:102EB0001820400000020418E00000000040201824
:102EC00007000000404080F0804040000202010FF7
:102ED00001020200000000F0000000000101011FDB
:102EE00001010100000000000000000000B07000BF
:102EF00000000000000000000000000000010101CF
:102F0000010101010000000000000000003030005D
:102F10000000000000000000806018040060180637
:102F20000100000000E010080810E000000F102071
:102F300020100F00001010F8000000000020203FBB
:102F40002020000000700808088870000030282445
:102F500022213000003008888848300000182020E6
:102F600020110E000000C02010F80000000704240B
:102F7000243F240000F80888880808000019212050
:102F800020110E0000E0108888180000000F1120AA
:102F900020110E0000380808C83808000000003F63
:102FA000000000000070880808887000001C2221C2
:102FB00021221C0000E010080810E000000031226F
:102FC00022110F00000000C0C0000000000000300F
:102FD00030000000000000C0C0000000000080B011
:102FE0007000000000008040201008000001020472
:102FF00008102000404040404040400004040404C9
:103000000404040000081020408000000020100884
:1030100004020100007048080808F00000000030B9
:1030200036010000C030C828E810E0000718272447
:1030300023140B000000C038E0000000203C2302F5
:103040000227382008F8888888700000203F202058
:1030500020110E00C030080808083800071820208A
:103060002010080008F808080810E000203F202081
:1030700020100F0008F88888E8081000203F202062
:103080002320180008F88888E8081000203F200056
:1030900003000000C030080808380000071820208E
:1030A000221E020008F808000008F808203F21014D
:1030B00001213F20000808F8080800000020203FF8
:1030C0002020000000000808F8080800C080808068
:1030D0007F00000008F888C028180800203F200161
:1030E0002638200008F8080000000000203F2020BB
:1030F0002020300008F8F800F8F80800203F003FD2
:10310000003F200008F830C00008F808203F2000E9
:1031100007183F00E01008080810E0000F102020FA
:1031200020100F0008F808080808F000203F2101CF
:1031300001010000E01008080810E0000F18242426
:1031400038504F0008F8888888887000203F200099
:10315000030C30200070880808083800003820214F
:1031600021221C00180808F8080818000000203F59
:103170002000000008F808000008F808001F2020C0
:1031800020201F000878880000C838080000073891
:103190000E010000F80800F80008F800033C0700E2
:1031A000073C0300081868808068180820302C034A
:1031B000032C30200838C800C83808000000203F21
:1031C0002000000010080808C83808002038262110
:1031D00020201800000000FE020202000000007F14
:1031E00040404000000C30C0000000000000000122
:1031F0000638C00000020202FE000000004040400D
:103200007F000000002010080408102000000000CB
:1032100000000000000000000000000080808080AE
:103220008080808000020408000000000000000090
:10323000000000000000808080800000001924222F
:1032400022223F2008F8008080000000003F11206B
:1032500020110E000000008080800000000E112070
:1032600020201100000000808088F800000E11204E
:1032700020103F200000808080800000001F22225C
:1032800022221300008080F0888888180020203FC8
:10329000202000000000808080808000006B9494DB
:1032A0009493600008F8008080800000203F210097
:1032B00000203F2000809898000000000020203F60
:1032C00020200000000000809898000000C080804E
:1032D000807F000008F8000080808000203F2402EA
:1032E0002D302000000808F8000000000020203FDA
:1032F000202000008080808080808000203F20008F
:103300003F20003F008080008080000000203F219F
:1033100000203F200000808080800000001F2020CF
:1033200020201F00808000808000000080FFA120FE
:1033300020110E000000008080808000000E11200F
:1033400020A0FF80808080008080800020203F219E
:103350002000010000008080808080000033242451
:1033600024241900008080E0808000000000001FFD
:10337000202000008080000000808000001F2020AE
:1033800020103F20808080000080808000010E306F
:103390000806010080800080008080800F300C03D0
:1033A0000C300F0000808000808080000020312ED3
:1033B0000E312000808080000080808080818E70AF
:1033C0001806010000808080808080000021302C61
:1033D0002221300000000000807C0202000000007A
:1033E000003F404000000000FF000000000000001F
:1033F000FF0000000002027C800000000040403F0F
:1034000000000000008040408000008000000000BC
:10341000000101000000000000000000002F00007B
:1034200000000700070000147F147F1400242A7F87
:103430002A12002313086462003649552250000006
:103440000007000000001C224100000041221C0077
:103450000014083E08140008083E0808000000A0F8
:1034600060000008080808080000606000000020F4
:1034700010080402003E5149453E0000427F4000D2
:10348000004261514946002141454B310018141258
:103490007F10002745454539003C4A494930000125
:1034A0007109050300364949493600064949291E74
:1034B00000003636000000005636000000081422D6
:1034C00041000014141414140000412214080002D6
:1034D00001510906003E4955592E007C1211127CFB
:1034E000007F49494936003E41414122007F414128
:1034F000221C007F49494941007F09090901003E1A
:103500004149497A007F0808087F0000417F410057
:10351000002040413F01007F08142241007F4040CD
:103520004040007F020C027F007F0408107F003EB5
:103530004141413E007F09090906003E4151215E9B
:10354000007F091929460046494949310001017F98
:103550000101003F4040403F001F2040201F003F2E
:103560004038403F006314081463000708700807E0
:1035700000615149454300007F41410000020408B9
:103580001020000041417F000004020102040040BD
:103590004040404000000102040000205454547890
:1035A000007F4844443800384444442000384444B0
:1035B000487F00385454541800087E09010200184E
:1035C000A4A4A47C007F080404780000447D40008B
:1035D000004080847D00007F102844000000417F6F
:1035E0004000007C04180478007C0804047800384B
:1035F0004444443800FC242424180018242418FCD3
:10360000007C0804040800485454542000043F443B
:103610004020003C4040207C001C2040201C003CFE
:103620004030403C004428102844001CA0A0A07C4E
:10363000004464544C440000087F41000000007FB7
:1036400000000000417F0800000804081008200066
:10365000000000000000000000000000000000006A
:1036600000000000005838000000000000000000CA
:10367000000000200000000000000000000000002A
:1036800000000000000000000000182424180000C2
:10369000000000000000000020000000000080602A
:1036A000F8074020180F08C8080828180001000073
:1036B000FF00100C0340807F00010618002000006E
:1036C00000001010F01F10F000808282E2928A86C3
:1036D0008000402215081661000040807F00000035
:1036E00000002000000000202020FE2020FF2020DD
:1036F00020FF20202020000000007F40404744445D
:10370000444740404000002000000000000000FE50
:10371000929292FE929292FE0000000008080484A9
:10372000621E010001FE02040408080000000000FF
:1037300000FF010101310909090989710101010134
:10374000FFFF808080808080968180808080808064
:10375000FF000000000000000000000030313233A4
:1037600034353637383941424344454640305800B5
:1037700030313233343536373839616263646566E7
:103780004030780004000008000000000000000243
:1037900000010000103031323334353637383961AA
:1037A00062636465667870003031323334353637A1
:1037B0003839414243444546585000000240000019
:1037C000000000A00000000005400000000000C84C
:1037D000000000000C4000000000409C00000000C1
:1037E000194000000020BCBE000000003440000072
:1037F000BFC91B8E00000004B5400000504BCFD065
:103800006607E2CF010000006C4100003E8251AA31
:10381000DFEEA73401000000D9420000DCB5A0E2D1
:103820003A301F97FFFFFFFFB4450000FD25A0C8F9
:10383000E9A3C14FFFFFFFFFFF3F00000000008032
:1038400000000000FF3F00000000008000000000BA
:103850009C39000800000020140000002801000826
:10386000B039000814000020640A00004401000878
:103870001C00000043000000F8FFFFFF0C000000E8
:103880000E0000000F0000002E00000010010000DC
:1038900043000000F8FFFFFF004040404040404030
:1038A0004040414141414140404040404040404013
:1038B00040404040404040404005020202020202B7
:1038C0000202020202020202022020202020202006
:1038D000202020020202020202029090909090901A
:1038E00010101010101010101010101010101010D8
:1038F000101010100202020202028888888888884C
:103900000808080808080808080808080808080837
:10391000080808080202020240000000000000003F
:103920000000000000000000000000000000000097
:103930000000000000000000000000000000000087
:103940000000000000000000000000000000000077
:103950000000000000000000000000000000000067
:103960000000000000000000000000000000000057
:103970000000000000000000000000000000000047
:103980000000000000000000000000000000000037
:1039900000000000000000000000000058020000CD
:1039A0005802000058020000FFFFFFFF0000000067
:04000005080000ED02
:00000001FF
