:020000040800F2
:10000000600600206D0100087501000877010008F6
:10001000790100087B0100087D0100080000000054
:100020000000000000000000000000007F01000848
:10003000810100080000000083010008850100081C
:100040008701000887010008870100088701000870
:100050008701000887010008870100088701000860
:100060008701000887010008870100088701000850
:100070008701000887010008870100088701000840
:100080008701000887010008870100088701000830
:100090008701000887010008870100088701000820
:1000A0008701000887010008870100088701000810
:1000B0008701000887010008870100088701000800
:1000C00087010008870100088701000887010008F0
:1000D00087010008870100088701000887010008E0
:1000E00087010008870100088701000800F002F876
:1000F00000F02CF80AA090E8000C82448344AAF196
:100100000107DA4501D100F021F8AFF2090EBAE893
:100110000F0013F0010F18BFFB1A43F0010318473B
:1001200014150000241500000023002400250026DB
:10013000103A28BF78C1FBD8520728BF30C148BF4A
:100140000B6070471FB51FBD10B510BD00F031F832
:100150001146FFF7F7FF00F05DFE00F04FF803B423
:10016000FFF7F2FF03BC00F057F800000948804792
:1001700009480047FEE7FEE7FEE7FEE7FEE7FEE789
:10018000FEE7FEE7FEE7FEE704480549054A064BA1
:10019000704700008D080008ED0000086000002096
:1001A0006006002060020020600200207047704757
:1001B0007047754600F02CF8AE4605006946534678
:1001C00020F00700854618B020B5FFF7DDFFBDE839
:1001D00020404FF000064FF000074FF000084FF0AE
:1001E000000B21F00701AC46ACE8C009ACE8C0093F
:1001F000ACE8C009ACE8C0098D46704710B50446AC
:10020000AFF300802046BDE81040FFF7A8BF000014
:10021000004870470000002001491820ABBEFEE7EF
:1002200026000200704700B502464FF47A7302E0E0
:10023000184600F010F8521E501CF9D100BD30B520
:1002400004464FF47A7502E02846FFF7ECFF641E7F
:10025000601CF9D130BD00EBC000C1004FF0E020C0
:10026000416100218161052101610169C903FCD55A
:100270000421016170472DE9F0410022CC7804F09F
:100280000F03E40601D58C7823430C784FF00F0759
:1002900014F0FF0F4FF0010C1CD005680CFA02F4AB
:1002A0000E882640A64211D1960007FA06F825EAE4
:1002B000080503FA06F848EA0505CE78282E02D08C
:1002C000482E02D002E0446100E00461521C082A7A
:1002D000E4D305600A88FF2A1ED94568002202F18E
:1002E00008060CFA06F40E882640A64210D19600A5
:1002F00007FA06F825EA080503FA06F848EA0505AC
:10030000CE78282E00D14461CE78482E00D10461E9
:10031000521C082AE3D34560BDE8F0810246002064
:1003200092680A4200D00120704741617047016124
:100330007047002A01D00161704741617047000099
:1003400008B50121082000F039FA04208DF80300D7
:100350004FF47040ADF8000003208DF802006946AC
:100360000148FFF788FF08BD000C01407FB5FFF78B
:10037000E7FF4A4D4FF480512846FFF7CFFF00902A
:1003800069142846FFF7CAFF01904FF480412846C0
:10039000FFF7C4FF02904FF400412846FFF7BEFF6D
:1003A0000390009801280CD10198012809D10298E6
:1003B000012806D10398012803D10324462000F028
:1003C000D7F9009838B90198012804D1029801287A
:1003D00001D1039810B1009828B10BE000245020FF
:1003E00000F0C6F957E00198012803D1029808B936
:1003F000039810B1009828B10BE00024502000F0C1
:10040000B7F948E0019820B90298012801D1039872
:1004100018B10098012805D00BE000243C2000F022
:10042000A7F938E00198012803D1029808B9039888
:1004300010B1009828B10CE00B24322000F098F99C
:1004400029E0019828B90298012802D103980128CF
:1004500003D00098012805D00AE01624322000F0CD
:1004600087F918E0019818B9029808B9039810B1F3
:10047000009828B10FE06F24322000F079F90AE0EB
:10048000019840B9029830B90398012803D1DE24BD
:10049000322000F06DF904B0204670BD000C014020
:1004A00070B500250021284600F0EEF80024002059
:1004B00000F04CF9641CE4B2802CF8D36D1CEDB252
:1004C000082DEFD370BD0000F8B50121042000F025
:1004D00075F914208DF8030003208DF802004FF405
:1004E0008074ADF800400B4E69463046FFF7C3FEFE
:1004F0006500ADF8005069463046FFF7BCFE0122AA
:1005000021463046FFF715FF012229463046FFF706
:1005100010FFF8BD000801402DE9F0470746002410
:10052000134D4FF080094FF40078AE1529FA04F20C
:100530003A4041462846FFF7FCFE01223146284654
:10054000FFF7F7FE002231462846FFF7F2FE641C53
:10055000E4B2082CEAD3012231462846FFF7E9FE2F
:1005600031462846BDE8F0470022FFF7E2BE000012
:100570000008014070B501220B4D54022146284667
:10058000FFF7D7FE0122160231462846FFF7D1FEBB
:10059000002221462846FFF7CCFE31462846BDE81A
:1005A00070400022FFF7C5BE0008014070B50A4D3B
:1005B0004FF40074002221462846FFF7BAFE0122BC
:1005C00011022846FFF7B5FE21462846BDE87040D7
:1005D0000122FFF7AEBE00000008014010B5002167
:1005E0004FF47A720020401C9042FCD3491C914287
:1005F000F8D3FFF769FFAE2000F097F8D52000F0A0
:1006000094F8802000F091F8A82000F08EF83F20A8
:1006100000F08BF8D32000F088F8002000F085F877
:10062000402000F082F8A12000F07FF8C82000F000
:100630007CF8DA2000F079F8122000F076F88120BA
:1006400000F073F8CF2000F070F8D92000F06DF8BA
:10065000F12000F06AF8DB2000F067F8302000F0AD
:1006600064F8A42000F061F8A62000F05EF88D2068
:1006700000F05BF8142000F058F8AF2000F055F8B7
:10068000BDE81040FFF70CBF10B50C4640F0B000BD
:1006900000F04BF8102040EA141000F046F804F087
:1006A0000F00BDE8104000F040B800002DE9F04117
:1006B0001546491E461ECF007006F9B2000EFFF720
:1006C000E3FF00240E48203D00EB0515285D00F0F7
:1006D0003DF8641CE4B2082CF8D3012000EB46007E
:1006E000F9B2C0B2FFF7D0FF00242819007A00F059
:1006F0002DF8641CE4B2082CF7D3BDE8F0810000AB
:10070000441000082DE9F04107460D461646002426
:1007100006E02819C1B23846FFF7C8FF641CE4B2EE
:10072000325D002AF5D1BDE8F08110B50446FFF72F
:1007300021FF7820FFF7F0FE0020FFF7EDFE2046B6
:10074000FFF7EAFEBDE81040FFF730BF10B50446E2
:10075000FFF710FF7820FFF7DFFE4020FFF7DCFEF9
:100760002046FFF7D9FEBDE81040FFF71FBF00008D
:1007700070B50546094C2946204600F071FA294615
:10078000204600F06FFA2946204600F06DFA29460F
:100790002046BDE8704000F069BA00000008004043
:1007A000054A002903D0D1690143D1617047D1695D
:1007B0008143D1617047000000100240054A0029C2
:1007C00003D09169014391617047916981439161BF
:1007D0007047000000100240AFF300800CB500220B
:1007E000019200922748016841F4803101604FF482
:1007F000A063016801F4003100910199491C019145
:10080000009911B901999942F3D10168890302D580
:100810000121009100E000920099012930D11A498C
:100820000A6842F010020A600A6822F003020A60B5
:100830000A6842F002020A60416841604168416012
:10084000416841F480614160416821F47C1141605C
:10085000416841F4E8114160016841F08071016034
:1008600001688901FCD5416821F0030141604168BC
:1008700041F0020141604168C1F381010229FAD1CE
:100880000CBD0000001002400020024010B50F48CF
:10089000016841F00101016041680D4A1140416069
:1008A00001680C4A11400160016821F48021016057
:1008B000416821F4FE0141604FF41F018160FFF7A0
:1008C0008BFF05494FF00060086010BD001002402A
:1008D0000000FFF8FFFFF6FE08ED00E030B589B03C
:1008E00001210420FFF75CFF01210820FFF766FFCC
:1008F00018208DF823004FF47070ADF8200003200D
:100900008DF8220008A92A48FFF7B5FC294D284692
:1009100000F078F80024ADF81A40ADF816406321D5
:10092000ADF8181040F2CF20ADF814008DF81C403F
:1009300005A9284600F09EF901A800F087F960207B
:10094000ADF80400ADF80C400120ADF80600ADF89C
:100950000A4001A9284600F05BF801A9284600F0EA
:10096000A1F801A9284600F0EBF801A9284600F0FB
:100970002FF90121284600F01FF80121284600F038
:1009800033F80121284600F087F80121284600F0BD
:10099000CDF80121284600F015F90121284600F084
:1009A0004BF90121284600F013F809B030BD0000D2
:1009B000000C014000080040002904D0018841F0EB
:1009C000800101807047018821F08001018070471B
:1009D000002904D0018841F001010180704701889D
:1009E00021F0010101807047002905D030F8441F33
:1009F00041F400410180704730F8441FC1F30E01FB
:100A000001807047018921F00701018170470000D2
:100A100030B5028C22F001020284028C8388048BA0
:100A200024F0700424F003050C882C4322F0020209
:100A30000D8915434A882A43124DA8420BD0124D06
:100A4000A84208D0114DA84205D0114DA84202D0AD
:100A5000104DA8420FD122F008054A892A4322F0FE
:100A600004058A882A4323F4807323F400738D8954
:100A70001D43CB892B4383800483C98881860284EC
:100A800030BD0000002C0140003401400040014016
:100A90000044014000480140028B22F008020A4352
:100AA0000283704770B5028C22F010020284028C1F
:100AB0008388048B24F4E04424F440760D884FF6B8
:100AC000FF7404EA0525354322F020020E8904EA6A
:100AD000061616434A8804EA02123243114EB04207
:100AE00002D0114EB04217D122F080024E8904EAA2
:100AF0000616164326F040068A8804EA021232439C
:100B000023F4806323F400638E8904EA86061E437F
:100B1000CB8904EA8303334383800583C988018733
:100B2000028470BD002C014000340140028B22F48D
:100B300000624FF6FF7303EA0121114301837047FE
:100B400070B5028C22F480720284028C8388848BBC
:100B500024F0700424F003040D88254322F400726D
:100B60000E894FF6FF7404EA062616434A8804EA03
:100B700002223243114EB04202D0114EB04217D180
:100B800022F400664A8904EA0222324322F4806693
:100B90008A8804EA0222324323F4805323F4005368
:100BA0008E8904EA06161E43CB8904EA03133343F5
:100BB00083808583C9888187028470BD002C0140B1
:100BC00000340140828B22F008020A43828370477E
:100BD00070B5028C22F480520284058C8288838B4B
:100BE00023F4E04323F440760C884FF6FF7303EAC6
:100BF0000424344325F400550E8903EA06362E43B7
:100C00004D8803EA05353543094EB04202D0094EFE
:100C1000B04205D122F480468A8903EA8212324327
:100C200082808483C988A0F84010058470BD0000CC
:100C3000002C014000340140828B22F400624FF608
:100C4000FF7303EA01211143818370470021018072
:100C500041808180C180018141818181C181704752
:100C6000818670470187704781877047A0F84010E0
:100C70007047000030B502881B4C1C4DA0420DD0BF
:100C8000A8420BD0B0F1804F08D0194B984205D044
:100C9000184B984202D0184B984203D122F07003AF
:100CA0004A881A43154B984206D0154B984203D0F8
:100CB00022F44073CA881A4302808A8882850A888F
:100CC0000285A0420AD0A84208D00E4A904205D020
:100CD0000D4A904202D00D4A904201D1097A018614
:100CE0000121818230BD0000002C01400034014010
:100CF0000004004000080040000C004000100040CC
:100D00000014004000400140004401400048014000
:100D100038B501210820FFF751FD01210420FFF71C
:100D20004DFD10248DF8034040F60640ADF800005C
:100D300003258DF8025069460848FFF79CFA8DF8A4
:100D4000034040F60340ADF800008DF802506946BC
:100D50000348FFF790FAFFF7C1FD38BD000C0140D2
:100D60000008014070B5134E4FF400642146304630
:100D7000FFF7DBFA651029463046FFF7D8FA042161
:100D80003046FFF7D2FA02213046FFF7D0FA21466B
:100D9000094C2046FFF7C9FA29462046FFF7C7FA53
:100DA00001212046FFF7C3FA2046BDE8704002212A
:100DB000FFF7BBBA000C01400008014070B5134EAC
:100DC0004FF4006421463046FFF7AFFA651029461C
:100DD0003046FFF7ACFA04213046FFF7A8FA0221AB
:100DE0003046FFF7A2FA2146094C2046FFF79DFA4C
:100DF00029462046FFF79BFA01212046FFF797FA84
:100E00002046BDE870400221FFF78FBA000C014078
:100E10000008014008B5FFF761FDFFF791FAFFF701
:100E200077FFFFF7DBFB01210820FFF7C7FC102449
:100E30008DF803400120ADF8000003268DF8026014
:100E4000624D69462846FFF716FA01210420FFF794
:100E5000B5FC8DF803406402ADF800408DF80260E7
:100E60005B4E69463046FFF706FAFFF77FFA032824
:100E70000ED101212846FFF75AFA21463046FFF7E6
:100E800056FA012153A20846FFF73CFCFFF76AFF20
:100E9000FFF76CFA60B3FFF769FA012838D0FFF763
:100EA00065FA022846D0FFF761FA0B2854D0FFF705
:100EB0005DFA162862D0FFF759FA6F2871D0FFF754
:100EC00055FADE28D1D101212846FFF730FA214614
:100ED0003046FFF72CFAFFF7E3FA01213FA208465C
:100EE000FFF710FC00F082F80020FFF7A8F9BCE73C
:100EF00001212846FFF71BFA21463046FFF717FA73
:100F0000012134A20846FFF7FDFBFFF72BFFACE7FA
:100F100001212846FFF70BFA21463046FFF707FA72
:100F2000FFF7BEFA01212FA20846FFF7EBFBFFF700
:100F300045FF9AE701212846FFF7F9F92146304697
:100F4000FFF7F5F9FFF7ACFA012124A20846FFF7F5
:100F5000D9FB00F04BF888E701212846FFF7E7F9B5
:100F600021463046FFF7E3F9FFF79AFA01211DA267
:100F70000846FFF7C7FBFFF721FF76E70121284668
:100F8000FFF7D5F921463046FFF7D1F9FFF788FA88
:100F9000012112A20846FFF7B5FB00F027F864E72D
:100FA000FFE701212846FFF7C2F921463046FFF747
:100FB000BEF9FFF775FA01210AA20846FFF7A2FB66
:100FC000FFF7FCFE0020FFF73AF94EE7000C014066
:100FD00000080140666F7277617264007269676829
:100FE000740000006C6566740000000070B5134E5C
:100FF0004FF4006421463046FFF799F96510294601
:101000003046FFF792F904213046FFF78EF90221AE
:101010003046FFF78CF92146094C2046FFF787F947
:1010200029462046FFF781F901212046FFF77DF987
:101030002046BDE870400221FFF779B9000C01405D
:101040000008014000000000000000000000000057
:1010500000000000000000F8000000000000003365
:101060003000000000100C06100C0600000000000C
:101070000000000040C07840C0784000043F0404F5
:101080003F040400007088FC08300000001820FFB6
:10109000211E0000F008F000E018000000211C03F1
:1010A0001E211E0000F00888700000001E2123246D
:1010B0001927211010160E0000000000000000008B
:1010C00000000000000000E018040200000000071B
:1010D0001820400000020418E00000000040201822
:1010E00007000000404080F0804040000202010FF5
:1010F00001020200000000F0000000000101011FD9
:1011000001010100000000000000000080B070003C
:1011100000000000000000000000000000010101CC
:10112000010101010000000000000000003030005B
:101130000000000000000000806018040060180635
:101140000100000000E010080810E000000F10206F
:1011500020100F00001010F8000000000020203FB9
:101160002020000000700808088870000030282443
:1011700022213000003008888848300000182020E4
:1011800020110E000000C02010F800000007042409
:10119000243F240000F8088888080800001921204E
:1011A00020110E0000E0108888180000000F1120A8
:1011B00020110E0000380808C83808000000003F61
:1011C000000000000070880808887000001C2221C0
:1011D00021221C0000E010080810E000000031226D
:1011E00022110F00000000C0C0000000000000300D
:1011F000300000000000008000000000000080605F
:1012000000000000000080402010080000010204DF
:1012100008102000404040404040400004040404C6
:101220000404040000081020408000000020100882
:1012300004020100007048080808F00000000030B7
:1012400036010000C030C828E810E0000718272445
:1012500023140B000000C038E0000000203C2302F3
:101260000227382008F8888888700000203F202056
:1012700020110E00C0300808080838000718202088
:101280002010080008F808080810E000203F20207F
:1012900020100F0008F88888E8081000203F202060
:1012A0002320180008F88888E8081000203F200054
:1012B00003000000C030080808380000071820208C
:1012C000221E020008F808000008F808203F21014B
:1012D00001213F20000808F8080800000020203FF6
:1012E0002020000000000808F8080800C080808066
:1012F0007F00000008F888C028180800203F20015F
:101300002638200008F8080000000000203F2020B8
:101310002020300008F8F800F8F80800203F003FCF
:10132000003F200008F830C00008F808203F2000E7
:1013300007183F00E01008080810E0000F102020F8
:1013400020100F0008F808080808F000203F2101CD
:1013500001010000E01008080810E0000F18242424
:1013600038504F0008F8888888887000203F200097
:10137000030C30200070880808083800003820214D
:1013800021221C00180808F8080818000000203F57
:101390002000000008F808000008F808001F2020BE
:1013A00020201F000878880000C83808000007388F
:1013B0000E010000F80800F80008F800033C0700E0
:1013C000073C0300081868808068180820302C0348
:1013D000032C30200838C800C83808000000203F1F
:1013E0002000000010080808C8380800203826210E
:1013F00020201800000000FE020202000000007F12
:1014000040404000000C30C000000000000000011F
:101410000638C00000020202FE000000004040400A
:101420007F0000000000040202020400000000002F
:1014300000000000000000000000000080808080AC
:101440008080808000020204000000000000000094
:10145000000000000000808080800000001924222D
:1014600022223F2008F8008080000000003F112069
:1014700020110E000000008080800000000E11206E
:1014800020201100000000808088F800000E11204C
:1014900020103F200000808080800000001F22225A
:1014A00022221300008080F0888888180020203FC6
:1014B000202000000000808080808000006B9494D9
:1014C0009493600008F8008080800000203F210095
:1014D00000203F2000809898000000000020203F5E
:1014E00020200000000000809898000000C080804C
:1014F000807F000008F8000080808000203F2402E8
:101500002D302000000808F8000000000020203FD7
:10151000202000008080808080808000203F20008C
:101520003F20003F8080008080800000203F21001D
:1015300000203F200000808080800000001F2020CD
:1015400020201F00808000808000000080FFA120FC
:1015500020110E000000008080808000000E11200D
:1015600020A0FF80808080008080800020203F219C
:10157000200001000000808080808000003324244F
:1015800024241900008080E0808000000000001FFB
:10159000202000008080000000808000001F2020AC
:1015A00020103F20808080000080808000010E306D
:1015B0000806010080800080008080800F300C03CE
:1015C0000C300F0000808000808080000020312ED1
:1015D0000E312000808080000080808080818E70AD
:1015E0001806010000808080808080000021302C5F
:1015F0002221300000000000807C02020000000078
:10160000003F404000000000FF000000000000001C
:10161000FF0000000002027C800000000040403F0C
:1016200000000000000601010202040400000000A6
:1016300000000000441600080000002060060000C2
:041640002801000875
:04000005080000ED02
:00000001FF
